:020000040800F2
:1000000000000220098500087D8300088383000822
:10001000898300088F830008958300080000000092
:100020000000000000000000000000009B830008AA
:10003000A983000800000000B7830008C5830008FA
:100040005985000859850008598500085985000818
:100050005985000859850008598500085985000808
:1000600059850008598500085985000859850008F8
:1000700059850008598500085985000859850008E8
:10008000D1830008E58300085985000859850008D8
:1000900059850008598500085985000859850008C8
:1000A000F98300085985000859850008598500081A
:1000B00059850008598500085985000815840008ED
:1000C00029840008598500085985000859850008C9
:1000D00059850008598500083D84000859850008A5
:1000E0005985000859850008598500085985000878
:1000F0005985000859850008598500085985000868
:100100005985000859850008598500085985000857
:100110005985000859850008518400086584000845
:100120005985000859850008598500085985000837
:100130005985000859850008598500085985000827
:100140005985000859850008598500085985000817
:100150005985000859850008598500085985000807
:1001600059850008598500085985000859850008F7
:1001700059850008598500085985000800000000CD
:080180005985000859850008AB
:1001880010B5054C237833B9044B13B10448AFF3C9
:1001980000800123237010BD9000002000000000A3
:1001A800D4FA000808B5034B1BB103490348AFF361
:1001B800008008BD0000000094000020D4FA000868
:1001C800034613F8012B002AFBD1181A013870478F
:1001D80081F0004102E000BF83F0004330B54FEAF0
:1001E80041044FEA430594EA050F08BF90EA020F5D
:1001F8001FBF54EA000C55EA020C7FEA645C7FEAF0
:10020800655C00F0E2804FEA5454D4EB5555B8BF12
:100218006D420CDD2C4480EA020281EA030382EA83
:10022800000083EA010180EA020281EA0303362D15
:1002380088BF30BD11F0004F4FEA01314FF4801CE8
:100248004CEA113102D0404261EB410113F0004FFA
:100258004FEA03334CEA133302D0524263EB4303B1
:1002680094EA050F00F0A780A4F10104D5F1200E4F
:100278000DDB02FA0EFC22FA05F2801841F10001AA
:1002880003FA0EF2801843FA05F359410EE0A5F17E
:1002980020050EF1200E012A03FA0EFC28BF4CF0AF
:1002A800020C43FA05F3C01851EBE37101F0004565
:1002B80007D54FF0000EDCF1000C7EEB00006EEB72
:1002C8000101B1F5801F1BD3B1F5001F0CD34908FC
:1002D8005FEA30004FEA3C0C04F101044FEA445253
:1002E80012F5800F80F09A80BCF1004F08BF5FEADA
:1002F800500C50F1000041EB045141EA050130BDBA
:100308005FEA4C0C404141EB0101013C28BFB1F5CB
:10031800801FE9D291F0000F04BF01460020B1FA16
:1003280081F308BF2033A3F10B03B3F120020CDAE9
:100338000C3208DD02F1140CC2F10C0201FA0CF0C7
:1003480021FA02F10CE002F11402D8BFC2F1200C2C
:1003580001FA02F120FA0CFCDCBF41EA0C019040E2
:10036800E41AA2BF01EB0451294330BD6FEA04042B
:100378001F3C1CDA0C340EDC04F11404C4F1200216
:1003880020FA04F001FA02F340EA030021FA04F328
:1003980045EA030130BDC4F10C04C4F1200220FA7F
:1003A80002F001FA04F340EA0300294630BD21FABD
:1003B80004F0294630BD94F0000F83F4801306BF83
:1003C80081F480110134013D4EE77FEA645C18BF77
:1003D8007FEA655C29D094EA050F08BF90EA020F0E
:1003E80005D054EA000C04BF1946104630BD91EA06
:1003F800030F1EBF0021002030BD5FEA545C05D109
:100408004000494128BF41F0004130BD14F5800447
:100418003CBF01F5801130BD01F0004545F0FE41BB
:1004280041F470014FF0000030BD7FEA645C1ABFF0
:10043800194610467FEA655C1CBF0B46024650EA27
:10044800013406BF52EA033591EA030F41F4002153
:1004580030BD00BF90F0000F04BF0021704730B5D9
:100468004FF4806404F132044FF000054FF00001AE
:1004780050E700BF90F0000F04BF0021704730B56F
:100488004FF4806404F1320410F0004548BF404244
:100498004FF000013EE700BF42004FEAE2014FEA99
:1004A80031014FEA02701FBF12F07F4393F07F4F74
:1004B80081F06051704732F07F4208BF704793F077
:1004C8007F4F04BF41F40021704730B54FF460748A
:1004D80001F0004521F000411CE700BF50EA01028D
:1004E80008BF704730B54FF000050AE050EA010236
:1004F80008BF704730B511F0004502D5404261EBA6
:1005080041014FF4806404F132045FEA915C3FF4E6
:10051800D8AE4FF003025FEADC0C18BF03325FEA83
:10052800DC0C18BF033202EBDC02C2F1200300FA34
:1005380003FC20FA02F001FA03FE40EA0E0021FA59
:1005480002F11444BDE600BF70B54FF0FF0C4CF447
:10055800E06C1CEA11541DBF1CEA135594EA0C0FF9
:1005680095EA0C0F00F0DEF82C4481EA030621EA34
:100578004C5123EA4C5350EA013518BF52EA03356F
:1005880041F4801143F4801338D0A0FB02CE4FF021
:100598000005E1FB02E506F00042E0FB03E54FF051
:1005A8000006E1FB03569CF0000F18BF4EF0010E49
:1005B800A4F1FF04B6F5007F64F5407404D25FEA45
:1005C8004E0E6D4146EB060642EAC62141EA5551F8
:1005D8004FEAC52040EA5E504FEACE2EB4F1FD0C3A
:1005E80088BFBCF5E06F1ED8BEF1004F08BF5FEAB8
:1005F800500E50F1000041EB045170BD06F000466A
:1006080046EA010140EA020081EA0301B4EB5C0416
:10061800C2BFD4EB0C0541EA045170BD41F480110E
:100628004FF0000E013C00F3AB8014F1360FDEBF33
:10063800002001F0004170BDC4F10004203C35DA0F
:100648000C341BDC04F11404C4F1200500FA05F392
:1006580020FA04F001FA05F240EA020001F0004233
:1006680021F0004110EBD37021FA04F642EB0601A9
:100678005EEA430E08BF20EAD37070BDC4F10C04D3
:10068800C4F1200500FA04F320FA05F001FA04F297
:1006980040EA020001F0004110EBD37041F1000183
:1006A8005EEA430E08BF20EAD37070BDC4F120058E
:1006B80000FA05F24EEA020E20FA04F301FA05F2F6
:1006C80043EA020321FA04F001F0004121FA04F29E
:1006D80020EA020000EBD3705EEA430E08BF20EA6E
:1006E800D37070BD94F0000F0FD101F000464000A8
:1006F80041EB010111F4801F08BF013CF7D041EA2A
:10070800060195F0000F18BF704703F0004652002D
:1007180043EB030313F4801F08BF013DF7D043EAFE
:100728000603704794EA0C0F0CEA135518BF95EAB4
:100738000C0F0CD050EA410618BF52EA4306D1D13B
:1007480081EA030101F000414FF0000070BD50EA5A
:10075800410606BF1046194652EA430619D094EAE4
:100768000C0F02D150EA013613D195EA0C0F05D1CE
:1007780052EA03361CBF104619460AD181EA030122
:1007880001F0004141F0FE4141F470014FF00000DA
:1007980070BD41F0FE4141F4780170BD70B54FF075
:1007A800FF0C4CF4E06C1CEA11541DBF1CEA1355F5
:1007B80094EA0C0F95EA0C0F00F0A7F8A4EB0504D7
:1007C80081EA030E52EA03354FEA013100F08880CE
:1007D8004FEA03334FF0805545EA131343EA126397
:1007E8004FEA022245EA111545EA10654FEA00264C
:1007F8000EF000419D4208BF964244F1FD0404F505
:10080800407402D25B084FEA3202B61A65EB030560
:100818005B084FEA32024FF480104FF4002CB6EB1D
:10082800020E75EB030E22BFB61A754640EA0C009D
:100838005B084FEA3202B6EB020E75EB030E22BFDD
:10084800B61A754640EA5C005B084FEA3202B6EB1E
:10085800020E75EB030E22BFB61A754640EA9C00DD
:100868005B084FEA3202B6EB020E75EB030E22BFAD
:10087800B61A754640EADC0055EA060E18D04FEA6B
:10088800051545EA16754FEA06164FEAC30343EA0B
:1008980052734FEAC2025FEA1C1CC0D111F4801FD8
:1008A8000BD141EA00014FF000004FF0004CB6E7D1
:1008B80011F4801F04BF01430020B4F1FD0C88BF70
:1008C800BCF5E06F3FF6AFAEB5EB030C04BFB6EB7B
:1008D800020C5FEA500C50F1000041EB045170BD6E
:1008E8000EF0004E4EEA113114EB5C04C2BFD4EB9B
:1008F8000C0541EA045170BD41F480114FF0000E1F
:10090800013C90E645EA060E8DE60CEA135594EA9A
:100918000C0F08BF95EA0C0F3FF43BAF94EA0C0F9D
:100928000AD150EA01347FF434AF95EA0C0F7FF412
:1009380025AF104619462CE795EA0C0F06D152EA66
:1009480003353FF4FDAE1046194622E750EA41064A
:1009580018BF52EA43067FF4C5AE50EA41047FF45B
:100968000DAF52EA43057FF4EBAE12E74FF0FF3CC0
:1009780006E000BF4FF0010C02E000BF4FF0010C91
:100988004DF804CD4FEA410C7FEA6C5C4FEA430C0A
:1009980018BF7FEA6C5C1BD001B050EA410C0CBF59
:1009A80052EA430C91EA030F02BF90EA020F0020BB
:1009B800704710F1000F91EA030F58BF994208BF22
:1009C80090422CBFD8176FEAE37040F001007047DF
:1009D8004FEA410C7FEA6C5C02D150EA013C07D136
:1009E8004FEA430C7FEA6C5CD6D152EA033CD3D081
:1009F8005DF8040B704700BF8446104662468C467B
:100A08001946634600E000BF01B5FFF7B7FF0028AD
:100A180048BF10F1000F01BD4DF808EDFFF7F4FFD6
:100A28000CBF012000205DF808FB00BF4DF808ED61
:100A3800FFF7EAFF34BF012000205DF808FB00BF84
:100A48004DF808EDFFF7E0FF94BF012000205DF8A6
:100A580008FB00BF4DF808EDFFF7CEFF94BF01205B
:100A680000205DF808FB00BF4DF808EDFFF7C4FF54
:100A780034BF012000205DF808FB00BF4FEA410C9D
:100A88007FEA6C5C02D150EA013C0AD14FEA430C80
:100A98007FEA6C5C02D152EA033C02D14FF00000BD
:100AA80070474FF0010070474FEA4102B2F1E0434E
:100AB80024BFB3F5001CDCF1FE5C0DD901F0004C3D
:100AC8004FEAC0024CEA5070B2F1004F40EB83008D
:100AD80008BF20F00100704711F0804F21D113F1B9
:100AE8003872BCBF01F00040704741F480114FEAF2
:100AF8005252C2F11802C2F1200C10FA0CF320FA7B
:100B080002F018BF40F001004FEAC1234FEAD32397
:100B180003FA0CFC40EA0C0023FA02F34FEA430301
:100B2800CCE77FEA625307D150EA01331EBF4FF08A
:100B3800FE4040F44000704701F0004040F0FE40A5
:100B480040F40000704700BF53B94AB9002908BFF4
:100B580000281CBF4FF0FF314FF0FF3000F070B994
:100B6800ADF1080C6DE904CE00F006F8DDF804E0FC
:100B7800DDE9022304B070472DE9F047089E0D46D1
:100B880004460F46002B4AD18A42944665D9B2FAE8
:100B980082F343B102FA03FCC3F120029F4020FA1A
:100BA80002F217439C404FEA1C4E1FFA8CF5B7FB24
:100BB800FEF1220C0EFB117742EA074201FB05F019
:100BC80090420AD91CEB020201F1FF3780F01C8128
:100BD800904240F2198102396244121AA4B2B2FB5F
:100BE800FEF00EFB102244EA024400FB05F5A54284
:100BF8000AD91CEB040400F1FF3280F00781A542FA
:100C080040F204816444023840EA0140641B002138
:100C18001EB1DC400023C6E90043BDE8F0878B42E3
:100C280008D9002E00F0ED800021C6E9000508462D
:100C3800BDE8F087B3FA83F1002949D1AB4202D36A
:100C4800824200F2F880841A65EB030201201746FD
:100C5800002EE2D0C6E90047DFE702B9FFDEB2FAAC
:100C680082F3002B40F090808A1A4FEA1C471FFA43
:100C78008CFE0121B2FBF7F507FB1520220C42EA96
:100C880000420EFB05F0904208D91CEB020205F168
:100C9800FF3802D2904200F2CB804546121AA4B225
:100CA800B2FBF7F007FB102244EA02440EFB00FEF9
:100CB800A64508D91CEB040400F1FF3202D2A64570
:100CC80000F2BB801046A4EB0E0440EA05409FE703
:100CD800C1F120078B4022FA07FC4CEA030C05FA05
:100CE80001F420FA07F3FD404FEA1C492343B5FB02
:100CF800F9F81FFA8CFE09FB18551C0C44EA054448
:100D080008FB0EF5A54202FA01F200FA01F00BD930
:100D18001CEB040408F1FF3A80F08880A54240F2F9
:100D28008580A8F102086444641B9DB2B4FBF9F302
:100D380009FB134445EA044403FB0EFEA64508D903
:100D48001CEB040403F1FF356CD2A6456AD9023BBB
:100D5800644443EA0843A3FB0295A4EB0E04AC42A7
:100D6800C846AE4656D353D056B1B0EB080264EB32
:100D78000E0404FA07F7CA40CC401743C6E90074CA
:100D880018460021BDE8F087C3F1200102FA03FCF0
:100D980020FA01F225FA01F19D402A434FEA1C4747
:100DA8001FFA8CFEB1FBF7F007FB1015110C41EA96
:100DB800054100FB0EF58D4204FA03F408D91CEB3B
:100DC800010100F1FF382FD28D422DD9023861443C
:100DD800491B92B2B1FBF7F507FB151142EA014234
:100DE80005FB0EF1914208D91CEB020205F1FF3810
:100DF80016D2914214D9023D6244521A45EA004182
:100E080038E73146304608E73946E6E61046FBE65D
:100E18004845A9D2B9EB020865EB0C0E013BA3E7E4
:100E28004546EAE72B4694E74046D1E7D0467BE7BC
:100E3800023D624432E708460AE76444023842E762
:100E4800704700BF80B485B000AF786039603B68F8
:100E58001B685A0A0F49A1FB0212D2090E4901FB6D
:100E680002F29B1AFB603B681B685B0A094AA2FBFB
:100E78000323DB09BB607B681A68BB681A447B687C
:100E88001A603B68FA681A6000BF1437BD465DF8FF
:100E9800047B7047834B040000CA9A3B80B582B03C
:100EA80000AF00237B60CFE0B94A7B689B00134406
:100EB800D3ED007AF5EE407AF1EE10FA05D1B54A95
:100EC8007B68002122F81310BBE0B14A7B689B00C5
:100ED800134493ED007AB04A7B689B001344D3ED2A
:100EE800007A77EE677AAD4A7B689B001344C3EDBE
:100EF800007AAB4A7B689B00134493ED007AA74ABB
:100F08007B689B001344D3ED006AA64A7B689B006C
:100F18001344D3ED007A76EEA76AB0EE006AC6EE07
:100F2800867A77EE277A9E4A7B689B001344C3ED46
:100F3800007A9A4A7B689B00134493ED007A994A99
:100F48007B689B001344D3ED007A77EE677A964A64
:100F58007B689B001344C3ED007A904A7B689B0032
:100F680013441A688F497B689B000B441A60894AAE
:100F78007B6832F9133007EE903AB8EEE77A8B4A7D
:100F88007B689B001344D3ED006A844A7B689B000E
:100F98001344D3ED007A66EEA76A854A7B689B0006
:100FA800134493ED006A834BD3ED007A26EE276A4B
:100FB8007B4A7B689B001344D3ED007A66EE277A60
:100FC80076EEA76A7C4A7B689B00134493ED006A1F
:100FD800784BD3ED005AB7EE005AC5EE257A26EEC7
:100FE800276A714A7B689B001344D3ED007A66EE4A
:100FF800277A76EEA77A77EE277AFDEEE77A17EE6C
:10100800903A19B2634A7B6822F81310614A7B68E8
:1010180032F91330B3F57A7F06DB5E4A7B6840F21B
:10102800E73122F813100CE05A4A7B6832F9133082
:1010380013F57A7F05DC574A7B684FF6194122F889
:1010480013107B6801337B607B68032B7FF72CAF21
:10105800504BB3F90030002B10DB012220215748F8
:1010680008F0A4FC00220121554808F09FFC494BD8
:10107800B3F90020534B1B685A6315E0454BB3F98D
:101088000030002B10DA002220214C4808F08EFC9A
:10109800012201214A4808F089FC3E4BB3F900308F
:1010A8005A42484B1B685A633A4BB3F90230002B3B
:1010B80010DB01220221424808F078FC00220421BA
:1010C8003F4808F073FC334BB3F902203D4B1B68D3
:1010D8009A6315E02F4BB3F90230002B10DA002287
:1010E8000221374808F062FC01220421344808F044
:1010F8005DFC284BB3F902305A42324B1B689A63A5
:10110800244BB3F90430002B12DB01224FF4805139
:101118002B4808F04BFC00224FF40051284808F0F7
:1011280045FC1C4BB3F90420264B1B68DA6317E017
:10113800184BB3F90430002B12DA00224FF4805117
:101148001F4808F033FC01224FF400511C4808F0F6
:101158002DFC104BB3F904305A421A4B1B68DA6362
:101168000C4BB3F90630002B2EDB01224FF48041E3
:10117800134808F01BFC00224FF40041104808F007
:1011880015FC044BB3F906200E4B1B681A6433E0B8
:1011980044040020D40400205404002094040020B7
:1011A800A4040020B4040020C40400206404002027
:1011B800740400200C000020840400200008024071
:1011C80000040240000100200F4BB3F90630002B49
:1011D80012DA00224FF480410C4808F0E7FB0122A4
:1011E8004FF40041094808F0E1FB074BB3F906301A
:1011F8005A42074B1B681A64064B00221A7000BF3C
:101208000837BD4680BD00BFD4040020000402405A
:10121800000100202805002080B584B000AF786068
:101228007B68514A934202D1504805F051FE7B68D1
:101238001B684F4A934240F092804E4B1B685B6A92
:101248009AB24D4B1A804D4B1B685B6A9AB24A4B57
:101258005A804B4B1B685B6A9AB2474B9A80494B42
:101268001B685B6A9AB2444BDA800023FB606EE02D
:10127800454AFB6832F8133019463F4AFB6832F892
:101288001330CB1A47F2305293420FDD3E4AFB68C7
:1012980032F813203849FB6831F81330D31A9BB25F
:1012A80019B23A4AFB6822F813102BE0364AFB6859
:1012B80032F813301946304AFB6832F81330CB1A2B
:1012C800334A93420FDA304AFB6832F813202A492E
:1012D800FB6831F81330D31A9BB219B22B4AFB685A
:1012E80022F813100EE0284AFB6832F8132022492E
:1012F800FB6831F81330D31A9BB219B2234AFB6842
:1013080022F81310214AFB6832F9133007EE903A9D
:10131800F8EEE77A9FED1F7A67EE877AB1EE047AE6
:1013280027EE877ADFED1C6AC7EE267A1B4AFB6830
:101338009B001344C3ED007A0F4AFB6832F8131080
:10134800114AFB6822F81310FB680133FB60FB6845
:10135800032B8DDD124B01221A70FFF79FFD00BF92
:101368001037BD4680BD00BFB0020020AC00002091
:101378000010004048010020DC04002090010020FB
:10138800D801002020020020E4040020EC04002002
:10139800D08AFFFF000070420000B44454040020CB
:1013A8002805002080B500AF07F0D4F800F0CCF88D
:1013B80000F0F6FC00F0CCFC00F09CFC00F05EFABB
:1013C80000F0BAFA00F016FB00F072FB00F064F9C6
:1013D80000F04CFC00F0CAFB00F02AF900F006FC13
:1013E80004224649464805F0C2F9042245494648C0
:1013F80005F0BDF904224549454805F0B8F904F05F
:10140800D3FD444BD3ED007A434B93ED007AF0EED5
:10141800470AB0EE670A6821404805F01BFA034600
:10142800002B14BF01230023DBB2002B03D03C4B5D
:1014380000221A7002E03A4B01221A70394B1B88BD
:101448001946364805F04AFC002137480BF0ACFC39
:10145800042135480BF0A8FC082133480BF0A4FC04
:101468000C2131480BF0A0FC3C2130480BF00AFE5F
:101478003C212F480BF006FE3C212E480BF002FEC3
:101488003C212D480BF0FEFD2C480BF0C3FB2C48EB
:101498000BF0C0FB194B1B682A4A1360194B1B68D9
:1014A800284A5360194B1B68264A9360134B5B68A4
:1014B800244AD360134B5B68224A1361134B5B6861
:1014C800204A53610D4B9B681E4A93610D4B9B68E4
:1014D8001C4AD3610D4B9B681A4A1362074BDB68A1
:1014E800184A5362074BDB68164A9362074BDB685E
:1014F800144AD36204F080FDCCE700BF64040020E6
:1015080000000A087404002000000C08840400206D
:1015180000000E080000002004000020AC0000209D
:1015280029050020080000200001002048010020B3
:1015380090010020D801002020020020680200202D
:10154800B0020020F804002080B594B000AF07F185
:1015580020033022002118460EF065F907F10C032C
:1015680000221A605A609A60DA601A610023BB6030
:101578002D4B1B6C2C4A43F0805313642A4B1B6C75
:1015880003F08053BB60BB6800237B60274B1B685C
:10159800264A43F480431360244B1B6803F48043BA
:1015A8007B607B6802233B620123FB6210233B6361
:1015B8000223BB630023FB6308233B64A8237B64EB
:1015C8000223BB640423FB6407F1200318460AF0D6
:1015D80079FE0346002B14BF01230023DBB2002B46
:1015E80001D000F06FFC0F23FB6002233B61002356
:1015F8007B614FF4A053BB614FF48053FB6107F14B
:101608000C03052118460BF0D5F80346002B14BF30
:1016180001230023DBB2002B01D000F053FC00BFF4
:101628005037BD4680BD00BF003802400070004002
:1016380080B500AF154B164A1A60144B154A5A600C
:10164800124B00229A60114B0022DA600F4B4FF4C4
:1016580080421A610D4B00225A610C4B00229A619C
:101668000A4B0022DA61094B00221A62074808F087
:10167800B7F90346002B14BF01230023DBB2002B6C
:1016880001D000F01FFC00BF80BD00BFAC000020EF
:1016980000540040A086010080B596B000AF07F165
:1016A800480300221A605A609A60DA6007F1400322
:1016B80000221A605A6007F1240300221A605A6057
:1016C8009A60DA601A615A619A613B1D20220021F2
:1016D80018460EF0A8F8674B674A1A60654BA722B0
:1016E8005A60644B00229A60624B40F2E732DA603B
:1016F800604B00221A615F4B00225A615D4B8022C9
:101708009A615C480BF036FA0346002B14BF01239C
:101718000023DBB2002B01D000F0D4FB4FF4805340
:10172800BB6407F14803194652480BF003FF034610
:10173800002B14BF01230023DBB2002B01D000F0E3
:10174800C1FB4C480BF0D6FA0346002B14BF01230B
:101758000023DBB2002B01D000F0B4FB00233B6474
:1017680000237B6407F14003194642480CF0E2FA73
:101778000346002B14BF01230023DBB2002B01D04A
:1017880000F0A0FB60237B620023BB620023FB62A6
:1017980000233B6300237B630023BB630023FB63BD
:1017A80007F124030022194632480BF001FE0346D4
:1017B800002B14BF01230023DBB2002B01D000F063
:1017C80081FB07F12403042219462A480BF0F0FD97
:1017D8000346002B14BF01230023DBB2002B01D0EA
:1017E80000F070FB07F124030822194621480BF08A
:1017F800DFFD0346002B14BF01230023DBB2002BBF
:1018080001D000F05FFB07F124030C2219461948A8
:101818000BF0CEFD0346002B14BF01230023DBB2DF
:10182800002B01D000F04EFB00237B600023BB603F
:101838000023FB6000233B6100237B614FF40053CE
:10184800BB6100233B623B1D19460A480CF0EEFAC7
:101858000346002B14BF01230023DBB2002B01D069
:1018680000F030FB034806F095FC00BF5837BD4632
:1018780080BD00BF000100200000014080B58CB091
:1018880000AF07F10C032422002118460DF0CBFF0E
:101898003B1D00221A605A60264B4FF080421A60A6
:1018A800244B00225A60234B00229A60214B4FF6AA
:1018B800FF72DA601F4B00221A611E4B00229A61E8
:1018C8000323FB6000233B6101237B610023BB6191
:1018D8000023FB6100233B6201237B620023BB6280
:1018E8000023FB6207F10C03194612480BF024FB96
:1018F8000346002B14BF01230023DBB2002B01D0C9
:1019080000F0E0FA00237B600023BB603B1D194612
:1019180008480CF00FFA0346002B14BF01230023DC
:10192800DBB2002B01D000F0CDFA00BF3037BD4646
:1019380080BD00BF4801002080B58CB000AF07F122
:101948000C032422002118460DF06DFF3B1D0022D8
:101958001A605A60254B264A1A60244B00225A60A6
:10196800224B00229A60214B4FF6FF72DA601F4B20
:1019780000221A611D4B00229A610323FB60002399
:101988003B6101237B610023BB610023FB610023D2
:101998003B6201237B620023BB620023FB6207F1E9
:1019A8000C03194611480BF0C7FA0346002B14BF65
:1019B80001230023DBB2002B01D000F083FA0023BF
:1019C8007B600023BB603B1D194608480CF0B2F948
:1019D8000346002B14BF01230023DBB2002B01D0E8
:1019E80000F070FA00BF3037BD4680BD900100207E
:1019F8000004004080B58CB000AF07F10C0324222E
:101A0800002118460DF00FFF3B1D00221A605A6096
:101A1800254B264A1A60244B00225A60224B00228A
:101A28009A60214B4FF6FF72DA601F4B00221A6151
:101A38001D4B00229A610323FB6000233B610123B5
:101A48007B610023BB610023FB6100233B62012310
:101A58007B620023BB620023FB6207F10C0319467B
:101A680011480BF069FA0346002B14BF0123002329
:101A7800DBB2002B01D000F025FA00237B600023A5
:101A8800BB603B1D194608480CF054F90346002B6F
:101A980014BF01230023DBB2002B01D000F012FA9F
:101AA80000BF3037BD4680BDD80100200008004087
:101AB80080B58CB000AF07F10C0324220021184632
:101AC8000DF0B1FE3B1D00221A605A60254B264AD4
:101AD8001A60244B00225A60224B00229A60214B44
:101AE8004FF6FF72DA601F4B00221A611D4B00226D
:101AF8009A610323FB6000233B6101237B61002380
:101B0800BB610023FB6100233B6201237B6200234E
:101B1800BB620023FB6207F10C03194611480BF066
:101B28000BFA0346002B14BF01230023DBB2002B62
:101B380001D000F0C7F900237B600023BB603B1D88
:101B4800194608480CF0F6F80346002B14BF012389
:101B58000023DBB2002B01D000F0B4F900BF30370E
:101B6800BD4680BD20020020000C004080B582B038
:101B780000AF3B4600221A605A601A4B1A4A1A6094
:101B8800184B40F28F625A60164B00229A60154B30
:101B980042F20F72DA60134B00229A6111480AF080
:101BA800E9FF0346002B14BF01230023DBB2002BFF
:101BB80001D000F087F900233B6000237B603B469F
:101BC800194608480CF0B6F80346002B14BF012349
:101BD8000023DBB2002B01D000F074F900BF0837F6
:101BE800BD4680BD680200200010004080B582B06C
:101BF80000AF3B4600221A605A601A4B1A4A1A6014
:101C0800184B40F61F525A60164B00229A60154B2B
:101C18006322DA60134B00229A6112480AF0AAFF85
:101C28000346002B14BF01230023DBB2002B01D095
:101C380000F048F900233B6000237B603B461946CF
:101C480008480CF077F80346002B14BF0123002343
:101C5800DBB2002B01D000F035F900BF0837BD46D4
:101C680080BD00BFB00200200014004080B584B0E1
:101C780000AF3B4600221A605A609A60DA601B4B3C
:101C88001B4A1A60194B40F61F525A60174B002224
:101C98009A60164B42F20F72DA60144B00221A61F6
:101CA800124B00229A6111480AF064FF0346002B88
:101CB80014BF01230023DBB2002B01D000F002F98E
:101CC8004FF480533B603B46194608480BF032FC02
:101CD8000346002B14BF01230023DBB2002B01D0E5
:101CE80000F0F0F800BF1037BD4680BDF8020020B4
:101CF8000040014080B500AF134B144A1A60124BE4
:101D08004FF461425A60104B00229A600E4B002239
:101D1800DA600D4B00221A610B4B0C225A610A4BF8
:101D280000229A61084B0022DA6107480CF0E4F8B7
:101D38000346002B14BF01230023DBB2002B01D084
:101D480000F0C0F800BF80BD400300200044004000
:101D580080B582B000AF00237B60104B1B6B0F4A2D
:101D680043F4001313630D4B1B6B03F400137B60E8
:101D78007B6800220021102006F05DFD102006F08F
:101D880076FD00220021112006F055FD112006F0F5
:101D98006EFD00BF0837BD4680BD00BF0038024059
:101DA80080B58CB000AF07F11C0300221A605A609E
:101DB8009A60DA601A610023BB613F4B1B6B3E4A95
:101DC80043F0800313633C4B1B6B03F08003BB6140
:101DD800BB6900237B61384B1B6B374A43F0010317
:101DE8001363354B1B6B03F001037B617B69002395
:101DF8003B61314B1B6B304A43F0040313632E4B9A
:101E08001B6B03F004033B613B690023FB602A4B17
:101E18001B6B294A43F002031363274B1B6B03F028
:101E28000203FB60FB680023BB60234B1B6B224A49
:101E380043F010031363204B1B6B03F01003BB60CC
:101E4800BB6800237B601C4B1B6B1B4A43F00803D9
:101E58001363194B1B6B03F008037B607B6800223C
:101E68002021164807F0A2FD00224FF2070114486E
:101E780007F09CFD2023FB6101233B6200237B626A
:101E88000023BB6207F11C0319460C4807F0F2FB5C
:101E98004FF20703FB6101233B6200237B620023AF
:101EA800BB6207F11C031946054807F0E3FB00BFB6
:101EB8003037BD4680BD00BF0038024000080240F0
:101EC8000004024080B400AF72B600BFFEE7000015
:101ED80080B582B000AF786039607B68012B17D17C
:101EE8003B684FF6FF72934212D10D4B1B681846A0
:101EF800FEF7D2FA08A3D3E90023FEF725FB024632
:101F08000B4610461946FEF7CFFD0346054A1360F7
:101F180000BF0837BD4680BD282D4454FB21194019
:101F280010000020F404002080B500AF4FF6FF71C8
:101F38000120FFF7CDFF80BD80B582B000AF87EDEF
:101F4800010AC7ED000AD7ED000A97ED010A0DF066
:101F5800DBF9F0EE407AB0EE670A0837BD4680BD7F
:101F680080B483B000AF78607B6800221A607B6819
:101F780000225A607B6818460C37BD465DF8047B22
:101F88007047000080B483B000AF7860044A7B6873
:101F98001A607B6818460C37BD465DF8047B7047AD
:101FA800BCFF000880B582B000AF78607B68184637
:101FB800FFF7E8FF064A7B681A607B680433184617
:101FC800FFF7CEFF7B6818460837BD4680BD00BFC7
:101FD800A4FF000880B485B000AF786039600023A2
:101FE800FB607B685968FB683A681344CAB21A7088
:101FF8007B685B68190AFB6801333A681344CAB204
:102008001A707B685B68190CFB6802333A681344E2
:10201800CAB21A707B685B68190EFB6803333A68AA
:102028001344CAB21A70FB680433FB607B68996872
:10203800FB683A681344CAB21A707B689B68190A2D
:10204800FB6801333A681344CAB21A707B689B680C
:10205800190CFB6802333A681344CAB21A707B68D9
:102068009B68190EFB6803333A681344CAB21A70A6
:10207800FB680433FB60FB6818461437BD465DF8FF
:10208800047B704780B485B000AF78603960002366
:10209800FB60FB683A6813441B781A467B685A60F1
:1020A8007B685A68FB68013339680B441B781B024C
:1020B8001A437B685A607B685A68FB680233396840
:1020C8000B441B781B041A437B685A607B685A6868
:1020D800FB68033339680B441B781B061A437B687B
:1020E8005A60FB680433FB60FB683A6813441B784A
:1020F8001A467B689A607B689A68FB68013339687E
:102108000B441B781B021A437B689A607B689A68A9
:10211800FB68023339680B441B781B041A437B683D
:102128009A607B689A68FB68033339680B441B78AC
:102138001B061A437B689A60FB680433FB60FB68E4
:1021480018461437BD465DF8047B704780B483B0E9
:1021580000AF7860034B18460C37BD465DF8047B2A
:10216800704700BFECFA000880B483B000AF786015
:10217800034B18460C37BD465DF8047B704700BF1B
:10218800FCFA000880B582B000AF78607B6818461A
:10219800FFF7F8FE0B4A7B681A607B6800229A807A
:1021A8007B68094A9A607B68074ADA607B68064A56
:1021B8001A617B6800225A617B6818460837BD4659
:1021C80080BD00BF8CFF000820FB000880B588B0E8
:1021D80000AF786039600023FB617B689988FB69F0
:1021E8003A681344CAB21A707B689B881B0A99B272
:1021F800FB6901333A681344CAB21A70FB690233A7
:10220800FB617B689B681846FDF7DAFFB861FB69DC
:102218003A681344B969184604F012FFFB6904339D
:10222800FB61FB693A68D0187B689B68BA691946F4
:102238000DF02EFBFA69BB691344FB617B68DB6810
:102248001846FDF7BDFF7861FB693A681344796960
:10225800184604F0F5FEFB690433FB61FB693A6834
:10226800D0187B68DB687A6919460DF011FBFA69AA
:102278007B691344FB617B681B691846FDF7A0FF67
:102288003861FB693A6813443969184604F0D8FE86
:10229800FB690433FB61FB693A68D0187B681B69EA
:1022A8003A6919460DF0F4FAFA693B691344FB617F
:1022B8007B685B69FB60F968FB693A681344CAB2DA
:1022C8001A70FB68190AFB6901333A681344CAB2E9
:1022D8001A70FB68190CFB6902333A681344CAB2D6
:1022E8001A70FB68190EFB6903333A681344CAB2C3
:1022F8001A70FB690433FB61FB6918462037BD4639
:1023080080BD80B58AB000AF786039600023BB61BA
:10231800BB693A6813441B789AB27B689A807B68D9
:102328009B881AB2BB69013339680B441B781B02BE
:102338001BB213431BB29AB27B689A80BB69023303
:10234800BB61BB693A681A4407F114031146184681
:1023580004F095FEBB690433BB61BB697B620BE08B
:102368003A687B6A1A447B6A013B39680B441278E5
:102378001A707B6A01337B62BA697B6913447A6A93
:102388009A42EDD3BA697B691344013B3A68134416
:1023980000221A70BB69013B3A681A447B689A604C
:1023A800BA697B691344BB61BB693A681A4407F18F
:1023B80010031146184604F062FEBB690433BB6182
:1023C800BB693B620BE03A683B6A1A443B6A013BD3
:1023D80039680B4412781A703B6A01333B62BA6958
:1023E8003B6913443A6A9A42EDD3BA693B6913448C
:1023F800013B3A68134400221A70BB69013B3A68F2
:102408001A447B68DA60BA693B691344BB61BB69EB
:102418003A681A4407F10C031146184604F02FFED7
:10242800BB690433BB61BB69FB610BE03A68FB69BC
:102438001A44FB69013B39680B4412781A70FB692E
:102448000133FB61BA69FB681344FA699A42EDD318
:10245800BA69FB681344013B3A68134400221A70B6
:10246800BB69013B3A681A447B681A61BA69FB6820
:102478001344BB610023BB60BB68BA6939680A446E
:1024880012781343BB60BA68BB69013339680B44DF
:102498001B781B021343BB60BA68BB6902333968F7
:1024A8000B441B781B041343BB60BA68BB69033336
:1024B80039680B441B781B061343BB60BA687B68FA
:1024C8005A61BB690433BB61BB6918462837BD46EE
:1024D80080BD000080B483B000AF7860034B18461D
:1024E8000C37BD465DF8047B704700BF24FB00082D
:1024F80080B483B000AF7860034B18460C37BD46F4
:102508005DF8047B704700BF40FB000880B582B0CF
:1025180000AF78607B681846FFF734FD064A7B6891
:102528001A607B6800221A717B68044A9A607B688B
:1025380018460837BD4680BD74FF000820FB000818
:1025480080B584B000AF786039600023FB60FB6819
:102558003A6813447A6812791A70FB680133FB6091
:102568007B689B681846FDF72BFEB860FB683A68E5
:102578001344B968184604F063FDFB680433FB6034
:10258800FB683A68D0187B689B68BA6819460DF0F2
:102598007FF9FA68BB681344FB60FB68184610377C
:1025A800BD4680BD80B586B000AF78603960002335
:1025B8003B613B693A6813441A787B681A713B6936
:1025C80001333B613B693A681A4407F10C03114631
:1025D800184604F054FD3B6904333B613B697B6159
:1025E8000BE03A687B691A447B69013B39680B4404
:1025F80012781A707B6901337B613A69FB6813446E
:102608007A699A42EDD33A69FB681344013B3A6808
:10261800134400221A703B69013B3A681A447B68EC
:102628009A603A69FB6813443B613B69184618375E
:10263800BD4680BD80B483B000AF7860034B1846B8
:102648000C37BD465DF8047B704700BF64FB00088B
:1026580080B483B000AF7860034B18460C37BD4692
:102668005DF8047B704700BF78FB000880B582B036
:1026780000AF78607B681846FFF784FC114A7B68D6
:102688001A607B6800225A607B6800229A607B6827
:102698000022DA607B6800221A617B684FF0000232
:1026A8005A617B6800229A617B680022DA617B6844
:1026B80000221A627B6800225A627B681846083733
:1026C800BD4680BD5CFF000880B58AB000AF786069
:1026D800396000237B627B6859687B6A3A681344D7
:1026E800CAB21A707B685B68190A7B6A01333A6858
:1026F8001344CAB21A707B685B68190C7B6A023390
:102708003A681344CAB21A707B685B68190E7B6A10
:1027180003333A681344CAB21A707B6A04337B6283
:1027280000233B622AE07B68DA683B6A9B0013441B
:102738001B683B6139697B6A3A681344CAB21A70EC
:102748003B69190A7B6A01333A681344CAB21A70A2
:102758003B69190C7B6A02333A681344CAB21A708F
:102768003B69190E7B6A03333A681344CAB21A707C
:102778007B6A04337B623B6A01333B627B685B683C
:102788003A6A9A42CFD37B6819697B6A3A681344DC
:10279800CAB21A707B681B69190A7B6A01333A68E6
:1027A8001344CAB21A707B681B69190C7B6A02331E
:1027B8003A681344CAB21A707B681B69190E7B6A9F
:1027C80003333A681344CAB21A707B6A04337B62D3
:1027D8000023FB612AE07B689A69FB699B0013442C
:1027E8001B68FB60F9687B6A3A681344CAB21A70BE
:1027F800FB68190A7B6A01333A681344CAB21A7033
:10280800FB68190C7B6A02333A681344CAB21A701F
:10281800FB68190E7B6A03333A681344CAB21A700C
:102828007B6A04337B62FB690133FB617B681B694C
:10283800FA699A42CFD37B68D9697B6A3A681344AC
:10284800CAB21A707B68DB69190A7B6A01333A6875
:102858001344CAB21A707B68DB69190C7B6A0233AD
:102868003A681344CAB21A707B68DB69190E7B6A2E
:1028780003333A681344CAB21A707B6A04337B6222
:102888000023BB6127E07B685A6ABB699B0013443D
:102898001B681846FDF794FC78617B6A3A68134414
:1028A8007969184604F0CCFB7B6A04337B627B6A47
:1028B8003A68D0187B685A6ABB699B0013441B6846
:1028C8007A6919460CF0E4FF7A6A7B6913447B62E3
:1028D800BB690133BB617B68DB69BA699A42D2D3B1
:1028E8007B6A18462837BD4680BD80B58EB000AFDC
:1028F8007860396000237B637B6B3A6813441B78EC
:102908003B627B6B01333A6813441B781B023A6ABB
:1029180013433B627B6B02333A6813441B781B04F6
:102928003A6A13433B627B6B03333A6813441B7860
:102938001B063A6A13433B627B6B04337B637B68F9
:102948005B683A6A9A420AD97B68DA683B6A9B00F4
:10295800194610460CF030FF02467B68DA607B6847
:102968003A6A5A6000233B6335E000237B617B6948
:102978007A6B39680A44127813437B617A697B6BF6
:10298800013339680B441B781B0213437B617A6956
:102998007B6B023339680B441B781B0413437B6140
:1029A8007A697B6B033339680B441B781B06134326
:1029B8007B617A697B689A607B6B04337B637B6895
:1029C800DA683B6B9B0013447A68083212681A6015
:1029D8003B6B01333B637B685B683A6B9A42C4D3B9
:1029E8007B6B3A6813441B78FB617B6B01333A6855
:1029F80013441B781B02FA691343FB617B6B023398
:102A08003A6813441B781B04FA691343FB617B6B18
:102A180003333A6813441B781B06FA691343FB61B6
:102A28007B6B04337B637B681B69FA699A420AD91A
:102A38007B689A69FB699B00194610460CF0BCFE3E
:102A480002467B689A617B68FA691A610023FB6217
:102A580035E000233B613B697A6B39680A44127898
:102A680013433B613A697B6B013339680B441B782C
:102A78001B0213433B613A697B6B023339680B4491
:102A88001B781B0413433B613A697B6B033339683A
:102A98000B441B781B0613433B613A697B685A61F8
:102AA8007B6B04337B637B689A69FB6A9B001344E6
:102AB8007A68143212681A60FB6A0133FB627B6819
:102AC8001B69FA6A9A42C4D37B6B3A6813441B7831
:102AD800BB617B6B01333A6813441B781B02BA69EC
:102AE8001343BB617B6B02333A6813441B781B04A6
:102AF800BA691343BB617B6B03333A6813441B7891
:102B08001B06BA691343BB617B6B04337B637B6829
:102B1800DB69BA699A420AD97B685A6ABB699B0021
:102B2800194610460CF048FE02467B685A627B68DC
:102B3800BA69DA610023BB623EE07B6B3A681A44EB
:102B480007F10C031146184604F099FA7B6B04331D
:102B58007B637B6B7B620BE03A687B6A1A447B6A17
:102B6800013B39680B4412781A707B6A01337B6227
:102B78007A6BFB6813447A6A9A42EDD37A6BFB68E6
:102B88001344013B3A68134400221A707B6B013BE3
:102B98003A681A447B681A627A6BFB6813447B6351
:102BA8007B685A6ABB6A9B0013447A6820321268B1
:102BB8001A60BB6A0133BB627B68DB69BA6A9A42F6
:102BC800BBD37B6B18463837BD4680BD80B483B015
:102BD80000AF7860034B18460C37BD465DF8047BA0
:102BE800704700BF08FE000880B483B000AF78606B
:102BF800034B18460C37BD465DF8047B704700BF91
:102C08009CFB000880B485B000AFF860B9607A60BA
:102C18003B60FB68BA681A60FB687A685A60FB68B0
:102C28003A681A61FB6818461437BD465DF8047B9C
:102C3800704780B582B000AF786039607B68D8682B
:102C48007B68DB681B681B687A6891683A689847F4
:102C5800034618460837BD4680BD80B483B000AF30
:102C680078607B681B6918460C37BD465DF8047BA5
:102C7800704780B483B000AF78607B681B689B6B3B
:102C88001B685B68C3F50073C3F3080318460C3769
:102C9800BD465DF8047B704780B483B000AF7860B0
:102CA8007B680A4A1A607B680022C3F804227B68A2
:102CB8000022C3F808247B680022C3F80C247B6830
:102CC80018460C37BD465DF8047B7047400300206A
:102CD80080B582B000AF7860786800F004F800BF73
:102CE8000837BD4680BD80B582B000AF78607B688C
:102CF80018687B6804334FF4007219460BF0C8F962
:102D080000BF0837BD4680BD90B585B000AF78607C
:102D18004FF0FF33FB607B68D3F804427868FFF715
:102D2800A8FF03469C4214BF01230023DBB2002BFB
:102D380012D07B68D3F80432591C7A68C2F804129E
:102D48007A6813441B79FB607B68D3F80432C3F3B9
:102D580008027B68C3F80422FB6818461437BD468E
:102D680090BD000080B584B000AF78607B681B68B8
:102D780093F83D30DBB2202B08D1284B1B7883F029
:102D88000103DBB2002B01D0012300E00023002B5C
:102D98003FD0224B01221A707B68D3F808247B6845
:102DA800D3F80C349A4231D07B68D3F80C247B6872
:102DB800D3F808349A420AD27B68D3F808349AB216
:102DC8007B68D3F80C349BB2D31A9BB206E07B68BD
:102DD800D3F80C349BB2C3F500739BB2FB817B68BC
:102DE80018687B68D3F80C3403F502737A681344C7
:102DF800FA8919460BF0CEF87B68D3F80C24FB89C6
:102E08001344C3F308027B68C3F80C24034B002265
:102E18001A7000BF1037BD4680BD00BF2A050020CC
:102E280080B586B000AFF860B9607A607B687B6176
:102E38007B69B3F5007FA8BF4FF400737B61FB6823
:102E4800D3F80834C3F500727B69934228BF134650
:102E58003B61FB68D3F8083403F50273FA6813443E
:102E68003A69B96818460CF013FDFB68D3F80824D2
:102E78007B691344C3F30802FB68C3F808247A6922
:102E88003B699A420BD0FB6803F502703B69BA684C
:102E9800D1187A693B69D31A1A460CF0F9FCF8681C
:102EA800FFF760FF00BF1837BD4680BD80B582B010
:102EB80000AF786005F0B4FB034618460837BD46F6
:102EC80080BD000080B582B000AF78607B6818468E
:102ED800FFF758F8084A7B681A607B68074A5A6007
:102EE8007B6800229A607B680022DA607B6818465B
:102EF8000837BD4680BD00BF18FF000820FB00084A
:102F080080B584B000AF786039600023FB607B68CF
:102F18005B681846FDF754F9B860FB683A681344D3
:102F2800B968184604F08CF8FB680433FB60FB684A
:102F38003A68D0187B685B68BA6819460CF0A8FC38
:102F4800FA68BB681344FB607B689968FB683A6859
:102F58001344CAB21A707B689B68190AFB6801336C
:102F68003A681344CAB21A707B689B68190CFB68EC
:102F780002333A681344CAB21A707B689B68190E08
:102F8800FB6803333A681344CAB21A70FB68043307
:102F9800FB607B68D968FB683A681344CAB21A7048
:102FA8007B68DB68190AFB6801333A681344CAB2C4
:102FB8001A707B68DB68190CFB6802333A681344A3
:102FC800CAB21A707B68DB68190EFB6803333A686B
:102FD8001344CAB21A70FB680433FB60FB681846D6
:102FE8001037BD4680BD80B586B000AF78603960C7
:102FF80000233B613B693A681A4407F10C03114608
:10300800184604F03CF83B6904333B613B697B613B
:103018000BE03A687B691A447B69013B39680B44C9
:1030280012781A707B6901337B613A69FB68134433
:103038007A699A42EDD33A69FB681344013B3A68CE
:10304800134400221A703B69013B3A681A447B68B2
:103058005A603A69FB6813443B613B693A68134418
:103068001B781A467B689A607B689A683B690133CB
:1030780039680B441B781B021A437B689A607B688B
:103088009A683B69023339680B441B781B041A435E
:103098007B689A607B689A683B69033339680B449C
:1030A8001B781B061A437B689A603B6904333B61B3
:1030B8003B693A6813441B781A467B68DA607B6878
:1030C800DA683B69013339680B441B781B021A43E1
:1030D8007B68DA607B68DA683B69023339680B44DD
:1030E8001B781B041A437B68DA607B68DA683B69E3
:1030F800033339680B441B781B061A437B68DA6074
:103108003B6904333B613B6918461837BD4680BDAF
:1031180080B483B000AF7860034B18460C37BD46C7
:103128005DF8047B704700BFC0FB000880B483B023
:1031380000AF7860034B18460C37BD465DF8047B3A
:10314800704700BFE0FB000880B582B000AF786030
:103158007B681846FEF716FF0A4A7B681A607B6888
:1031680000225A607B6808331846FFF7ABFE7B687D
:1031780000229A617B680022DA617B68184608376A
:10318800BD4680BD00FF000880B584B000AF786000
:1031980039600023FB607B685968FB683A68134410
:1031A800CAB21A707B685B68190AFB6801333A680F
:1031B8001344CAB21A707B685B68190CFB68023347
:1031C8003A681344CAB21A707B685B68190EFB68C8
:1031D80003333A681344CAB21A70FB680433FB60BD
:1031E8000023BB6017E07B689A69BB681B01D01895
:1031F8007B689A69BB681B0113441B681B68FA68E3
:1032080039680A44114698470246FB681344FB6034
:10321800BB680133BB607B685B68BA689A42E2D3DB
:103228007B68D969FB683A681344CAB21A707B682C
:10323800DB69190AFB6801333A681344CAB21A7089
:103248007B68DB69190CFB6802333A681344CAB21D
:103258001A707B68DB69190EFB6803333A681344FC
:10326800CAB21A70FB680433FB60FB681846103753
:10327800BD4680BD80B586B000AF78603960002358
:103288007B617B693A6813441B78FB607B69013377
:103298003A6813441B781B02FA681343FB607B6986
:1032A80002333A6813441B781B04FA681343FB6023
:1032B8007B6903333A6813441B781B06FA68134387
:1032C800FB607B6904337B617B685B68FA689A42C0
:1032D8000AD97B689A69FB681B01194610460CF0ED
:1032E8006BFA02467B689A617B68FA685A60002329
:1032F8003B611AE07B6803F108007B693A68134474
:103308001946FFF770FE02467B6913447B617B68B0
:103318009A693B691B01D0187B680833102219464B
:103328000CF0B6FA3B6901333B617B685B683A692C
:103338009A42DFD37B693A6813441B781A467B6844
:10334800DA617B68DA697B69013339680B441B7879
:103358001B021A437B68DA617B68DA697B6902338E
:1033680039680B441B781B041A437B68DA617B6855
:10337800DA697B69033339680B441B781B061A43E7
:103388007B68DA617B6904337B617B69184618378F
:10339800BD4680BD80B483B000AF7860034B18464B
:1033A8000C37BD465DF8047B704700BF04FC00087D
:1033B80080B483B000AF7860034B18460C37BD4625
:1033C8005DF8047B704700BF20FC000880B582B020
:1033D80000AF78607B681846FEF7D4FD0B4A7B681F
:1033E8001A607B6804331846FFF7AEFE7B6800223C
:1033F8005A627B684FF000029A627B680022DA62A8
:103408007B6818460837BD4680BD00BFE8FE000847
:1034180080B586B000AF7860396000237B617B6837
:10342800181D7B693A6813441946FFF7ADFE02463A
:103438007B6913447B617B68596A7B693A681344EA
:10344800CAB21A707B685B6A190A7B6901333A68E9
:103458001344CAB21A707B685B6A190C7B69023321
:103468003A681344CAB21A707B685B6A190E7B69A2
:1034780003333A681344CAB21A707B6904337B6118
:1034880000233B612AE07B68DA6A3B699B001344AE
:103498001B68FB60F9687B693A681344CAB21A7002
:1034A800FB68190A7B6901333A681344CAB21A7077
:1034B800FB68190C7B6902333A681344CAB21A7064
:1034C800FB68190E7B6903333A681344CAB21A7051
:1034D8007B6904337B613B6901333B617B685B6AD1
:1034E8003A699A42CFD37B6918461837BD4680BDE2
:1034F80080B586B000AF7860396000237B617B6857
:10350800181D7B693A6813441946FFF7B3FE024653
:103518007B6913447B617B693A6813441B78FB60C1
:103528007B6901333A6813441B781B02FA6813431A
:10353800FB607B6902333A6813441B781B04FA6802
:103548001343FB607B6903333A6813441B781B06FB
:10355800FA681343FB607B6904337B617B685B6AB1
:10356800FA689A420AD97B68DA6AFB689B001946AE
:1035780010460CF021F902467B68DA627B68FA682B
:103588005A6200233B6135E00023BB60BB687A695F
:1035980039680A4412781343BB60BA687B690133FF
:1035A80039680B441B781B021343BB60BA687B69FC
:1035B800023339680B441B781B041343BB60BA6899
:1035C8007B69033339680B441B781B061343BB60C4
:1035D800BA687B689A627B6904337B617B68DA6AC4
:1035E8003B699B0013447A68283212681A603B6969
:1035F80001333B617B685B6A3A699A42C4D37B6951
:1036080018461837BD4680BD80B483B000AF7860D7
:10361800034B18460C37BD465DF8047B704700BF66
:1036280044FC000880B483B000AF7860034B1846B0
:103638000C37BD465DF8047B704700BF60FC00088E
:1036480080B582B000AF78607B681846FEF79AFCB8
:103658000E4A7B681A6079684FF000024FF0000349
:10366800C1E9022379684FF000024FF00003C1E975
:10367800042379684FF000024FF00003C1E90623E4
:103688007B6818460837BD4680BD00BFD0FE0008DD
:1036980080B48BB000AF7860396000237B627B68B0
:1036A800D3E90223C7E90623D7E90623796A3868EC
:1036B8000144D3B20B70D7E906014FF000024FF076
:1036C8000003020A42EA01620B0A796A013138688A
:1036D8000144D3B20B70D7E906014FF000024FF056
:1036E8000003020C42EA01420B0C796A0231386885
:1036F8000144D3B20B70D7E906014FF000024FF036
:103708000003020E42EA01220B0E796A033138687F
:103718000144D3B20B70D7E906014FF000024FF015
:1037280000030A000023796A043138680144D3B2DF
:103738000B70D7E906014FF000024FF000030A0AA8
:103748000023796A053138680144D3B20B70D7E990
:1037580006014FF000024FF000030A0C0023796ABB
:10376800063138680144D3B20B70D7E906014FF02F
:1037780000024FF000030A0E0023796A0731386807
:103788000144D3B20B707B6A08337B627B68D3E950
:103798000423C7E90423D7E90423796A3868014474
:1037A800D3B20B70D7E904014FF000024FF00003C9
:1037B800020A42EA01620B0A796A01313868014457
:1037C800D3B20B70D7E904014FF000024FF00003A9
:1037D800020C42EA01420B0C796A02313868014452
:1037E800D3B20B70D7E904014FF000024FF0000389
:1037F800020E42EA01220B0E796A0331386801444D
:10380800D3B20B70D7E904014FF000024FF0000368
:103818000A000023796A043138680144D3B20B7076
:10382800D7E904014FF000024FF000030A0A002311
:10383800796A053138680144D3B20B70D7E90401BD
:103848004FF000024FF000030A0C0023796A06319A
:1038580038680144D3B20B70D7E904014FF0000275
:103868004FF000030A0E0023796A073138680144D3
:10387800D3B20B707B6A08337B627B68D3E906237B
:10388800C7E90223D7E90223796A38680144D3B229
:103898000B70D7E902014FF000024FF00003020A53
:1038A80042EA01620B0A796A013138680144D3B2ED
:1038B8000B70D7E902014FF000024FF00003020C31
:1038C80042EA01420B0C796A023138680144D3B2EA
:1038D8000B70D7E902014FF000024FF00003020E0F
:1038E80042EA01220B0E796A033138680144D3B2E7
:1038F8000B70D7E902014FF000024FF000030A00F5
:103908000023796A043138680144D3B20B70D7E9CF
:1039180002014FF000024FF000030A0A0023796AFF
:10392800053138680144D3B20B70D7E902014FF072
:1039380000024FF000030A0C0023796A0631386848
:103948000144D3B20B70D7E902014FF000024FF0E7
:1039580000030A0E0023796A073138680144D3B29C
:103968000B707B6A08337B627B6A18462C37BD462E
:103978005DF8047B70472DE9B00FEBB000AFC7F8D6
:103988008401C7F880110023C7F8A4314FF0000262
:103998004FF00003C7E96623D7E96601D7F8A421E9
:1039A800D7F8803113441B78DBB200221C46154639
:1039B80040EA040841EA0509C7E96689D7E96601CA
:1039C800D7F8A4315A1CD7F8803113441B78DBB2DE
:1039D80000229A4693464FF000024FF000034FEA48
:1039E8000B2343EA1A634FEA0A2240EA0204C7F8A3
:1039F80078410B43C7F87C31D7E95E34C7E96634B0
:103A0800D7E96601D7F8A4319A1CD7F88031134456
:103A18001B78DBB20022C7F87031C7F874214FF069
:103A280000024FF00003D7E95C894C462304444662
:103A380043EA14434446220440EA0204C7F86841B2
:103A48000B43C7F86C31D7E95A34C7E96634D7E96C
:103A58006601D7F8A431DA1CD7F8803113441B78F3
:103A6800DBB20022C7F86031C7F86421D7E95845AE
:103A780023461B0AC7F85C3123461B06C7F8583192
:103A8800D7E9564523460343C7F850312B460B4325
:103A9800C7F85431D7E95434C7E96634D7E9660121
:103AA800D7F8A4311A1DD7F8803113441B78DBB23C
:103AB8000022C7F84831C7F84C214FF000024FF0F8
:103AC8000003D7F848412300002240EA0204C7F85F
:103AD80040410B43C7F84431D7E95034C7E966344D
:103AE800D7E96601D7F8A4315A1DD7F880311344B5
:103AF8001B78DBB20022C7F83831C7F83C214FF0F9
:103B080000024FF00003D7F838412302002240EAB0
:103B18000204C7F830410B43C7F83431D7E94C34B5
:103B2800C7E96634D7E96601D7F8A4319A1DD7F8F2
:103B3800803113441B78DBB20022C7F82831C7F85C
:103B48002C214FF000024FF00003D7F8284123043E
:103B5800002240EA0204C7F820410B43C7F8243189
:103B6800D7E94834C7E96634D7E96601D7F8A431FC
:103B7800DA1DD7F8803113441B78DBB20022C7F86E
:103B88001831C7F81C214FF000024FF00003D7F896
:103B980018412306002240EA0204C7F810410B43EB
:103BA800C7F81431D7E94434C7E96634D7E9660160
:103BB800D7F88431C3E90201D7F8A4310833C7F82C
:103BC800A4314FF000024FF00003C7E96423D7E99E
:103BD8006401D7F8A421D7F8803113441B78DBB2ED
:103BE8000022C7F80831C7F80C21D7E94245234617
:103BF8000343C7F800312B460B43C7F80431D7E914
:103C08004034C7E96434D7E96401D7F8A4315A1CB1
:103C1800D7F8803113441B78DBB20022C7F8F8309C
:103C2800C7F8FC204FF000024FF00003D7E93E89A7
:103C38004C462302444643EA14634446220240EABF
:103C48000204C7F8F0400B43C7F8F430D7E93C3416
:103C5800C7E96434D7E96401D7F8A4319A1CD7F8C6
:103C6800803113441B78DBB20022C7F8E830C7F86C
:103C7800EC204FF000024FF00003D7E93A894C4698
:103C88002304444643EA14434446220440EA020417
:103C9800C7F8E0400B43C7F8E430D7E93834C7E940
:103CA8006434D7E96401D7F8A431DA1CD7F8803135
:103CB80013441B78DBB20022C7F8D830C7F8DC20E1
:103CC800D7E9364523461B0AC7F8D43023461B06D6
:103CD800C7F8D030D7E9344523460343C7F8C8307E
:103CE8002B460B43C7F8CC30D7E93234C7E96434E4
:103CF800D7E96401D7F8A4311A1DD7F880311344E5
:103D08001B78DBB20022C7F8C030C7F8C4204FF0D8
:103D180000024FF00003D7F8C0402300002240EA19
:103D28000204C7F8B8400B43C7F8BC30D7E92E34B3
:103D3800C7E96434D7E96401D7F8A4315A1DD7F824
:103D4800803113441B78DBB20022C7F8B030C7F8C3
:103D5800B4204FF000024FF00003D7F8B040230220
:103D6800002240EA0204C7F8A8400B43C7F8AC3069
:103D7800D7E92A34C7E96434D7E96401D7F8A4310C
:103D88009A1DD7F8803113441B78DBB20022C7F89C
:103D9800A030C7F8A4204FF000024FF00003D7F876
:103DA800A0402304002240EA0204C7F898400B43CD
:103DB800C7F89C30D7E92634C7E96434D7E96401E9
:103DC800D7F8A431DA1DD7F8803113441B78DBB259
:103DD8000022C7F89030C7F894204FF000024FF047
:103DE8000003D7F890402306002240EA0204C7F8EF
:103DF80088400B43C7F88C30D7E92234C7E96434CC
:103E0800D7E96401D7F88431C3E90401D7F8A431AC
:103E18000833C7F8A4314FF000024FF00003C7E998
:103E28006223D7E96201D7F8A421D7F88031134477
:103E38001B78DBB20022C7F88030C7F88420D7E9A6
:103E4800204523460343BB672B460B43FB67D7E953
:103E58001E34C7E96234D7E96201D7F8A4315A1C85
:103E6800D7F8803113441B78DBB200223B677A67AE
:103E78004FF000024FF00003D7E91C894C4623029B
:103E8800444643EA14634446220240EA0204BC66FC
:103E98000B43FB66D7E91A34C7E96234D7E96201F4
:103EA800D7F8A4319A1CD7F8803113441B78DBB2B9
:103EB80000223B667A664FF000024FF00003D7E914
:103EC80018894C462304444643EA144344462204D2
:103ED80040EA0204BC650B43FB65D7E91634C7E921
:103EE8006234D7E96201D7F8A431DA1CD7F88031F7
:103EF80013441B78DBB200223B657A65D7E9144589
:103F080023461B0AFB6423461B06BB64D7E91245FC
:103F1800234603433B642B460B437B64D7E91034A9
:103F2800C7E96234D7E96201D7F8A4311A1DD7F876
:103F3800803113441B78DBB20022BB63FA634FF075
:103F480000024FF00003BC6B2300002240EA020489
:103F58003C630B437B63D7E90C34C7E96234D7E988
:103F68006201D7F8A4315A1DD7F8803113441B7861
:103F7800DBB20022BB62FA624FF000024FF000038E
:103F8800BC6A2302002240EA02043C620B437B62C3
:103F9800D7E90834C7E96234D7E96201D7F8A43110
:103FA8000633D7F8802113441B78DBB20022BB61AB
:103FB800FA614FF000024FF00003BC6923040022AD
:103FC80040EA02043C610B437B61D7E90434C7E94A
:103FD8006234D7E96201D7F8A4310733D7F88021D2
:103FE80013441B78DBB20022BB60FA604FF000027A
:103FF8004FF00003BC682306002240EA02043C603C
:104008000B437B60D7E90034C7E96234D7E9622300
:10401800D7F88411C1E90623D7F8A4310833C7F8C3
:10402800A431D7F8A431184607F5D677BD46BDE8C0
:10403800B00F704780B483B000AF7860034B184668
:104048000C37BD465DF8047B704700BF84FC000850
:1040580080B483B000AF7860034B18460C37BD4678
:104068005DF8047B704700BF9CFC000880B582B0F7
:1040780000AF78607B681846FDF784FF084A7B68C4
:104088001A607B6808331846FFF7DAFA7B6828332A
:104098001846FFF7D5FA7B6818460837BD4680BD35
:1040A800B8FE000880B584B000AF7860396000239E
:1040B800FB607B6803F10800FB683A681344194603
:1040C800FFF7E6FA0246FB681344FB607B6803F1DE
:1040D8002800FB683A6813441946FFF7D9FA0246E4
:1040E800FB681344FB60FB6818461037BD4680BD6B
:1040F80080B584B000AF786039600023FB607B68CE
:1041080003F10800FB683A6813441946FFF733FCCB
:104118000246FB681344FB607B6803F12800FB68D8
:104128003A6813441946FFF726FC0246FB68134415
:10413800FB60FB6818461037BD4680BD80B483B06D
:1041480000AF7860034B18460C37BD465DF8047B1A
:10415800704700BFC0FC000880B483B000AF78602F
:10416800034B18460C37BD465DF8047B704700BF0B
:10417800D4FC000880B582B000AF78607B68184630
:10418800FDF700FF094A7B681A607B6800225A60C5
:104198007B6808331846FDF7E3FE7B68044A1A611A
:1041A8007B6818460837BD4680BD00BFA0FE0008E2
:1041B80020FB000880B584B000AF78603960002328
:1041C800FB607B685968FB683A681344CAB21A7086
:1041D8007B685B68190AFB6801333A681344CAB202
:1041E8001A707B685B68190CFB6802333A681344E1
:1041F800CAB21A707B685B68190EFB6803333A68A9
:104208001344CAB21A70FB680433FB607B68996870
:10421800FB683A681344CAB21A707B689B68190A2B
:10422800FB6801333A681344CAB21A707B689B680A
:10423800190CFB6802333A681344CAB21A707B68D7
:104248009B68190EFB6803333A681344CAB21A70A4
:10425800FB680433FB607B68D968FB683A681344E1
:10426800CAB21A707B68DB68190AFB6801333A68BE
:104278001344CAB21A707B68DB68190CFB680233F6
:104288003A681344CAB21A707B68DB68190EFB6877
:1042980003333A681344CAB21A70FB680433FB60EC
:1042A8007B681B691846FBF78BFFB860FB683A68A8
:1042B8001344B968184602F0C3FEFB680433FB6078
:1042C800FB683A68D0187B681B69BA6819460BF016
:1042D800DFFAFA68BB681344FB60FB6818461037BE
:1042E800BD4680BD80B586B000AF786039600023D8
:1042F8003B613B693A6813441B781A467B685A60ED
:104308007B685A683B69013339680B441B781B0288
:104318001A437B685A607B685A683B69023339687C
:104328000B441B781B041A437B685A607B685A68E5
:104338003B69033339680B441B781B061A437B68B7
:104348005A603B6904333B613B693A6813441B7804
:104358001A467B689A607B689A683B6901333968BA
:104368000B441B781B021A437B689A607B689A6827
:104378003B69023339680B441B781B041A437B687A
:104388009A607B689A683B69033339680B441B78E9
:104398001B061A437B689A603B6904333B613B699F
:1043A8003A6813441B781A467B68DA607B68DA68D7
:1043B8003B69013339680B441B781B021A437B683D
:1043C800DA607B68DA683B69023339680B441B782A
:1043D8001B041A437B68DA607B68DA683B6903333D
:1043E80039680B441B781B061A437B68DA603B6903
:1043F80004333B613B693A681A4407F10C031146E0
:10440800184602F03CFE3B6904333B613B697B6123
:104418000BE03A687B691A447B69013B39680B44B5
:1044280012781A707B6901337B613A69FB6813441F
:104438007A699A42EDD33A69FB681344013B3A68BA
:10444800134400221A703B69013B3A681A447B689E
:104458001A613A69FB6813443B613B69184618378F
:10446800BD4680BD80B483B000AF7860034B18466A
:104478000C37BD465DF8047B704700BFF8FC0008A8
:1044880080B483B000AF7860034B18460C37BD4644
:104498005DF8047B704700BF08FD000880B582B056
:1044A80000AF78607B681846FDF76CFD114A7B68A1
:1044B8001A6079684FF000024FF00003C1E9022347
:1044C80079684FF000024FF00003C1E904237968CE
:1044D8004FF000024FF00003C1E9062379684FF05E
:1044E80000024FF00003C1E908237B68184608372B
:1044F800BD4680BD88FE000880B48DB000AF7860EE
:1045080039600023FB627B68D3E90223C7E90823EB
:10451800D7E90823F96A38680144D3B20B70D7E9A0
:1045280008014FF000024FF00003020A42EA01625C
:104538000B0AF96A013138680144D3B20B70D7E924
:1045480008014FF000024FF00003020C42EA01425A
:104558000B0CF96A023138680144D3B20B70D7E901
:1045680008014FF000024FF00003020E42EA012258
:104578000B0EF96A033138680144D3B20B70D7E9DE
:1045880008014FF000024FF000030A000023F96A07
:10459800043138680144D3B20B70D7E908014FF0F1
:1045A80000024FF000030A0A0023F96A053138684F
:1045B8000144D3B20B70D7E908014FF000024FF065
:1045C80000030A0C0023F96A063138680144D3B2A3
:1045D8000B70D7E908014FF000024FF000030A0EF4
:1045E8000023F96A073138680144D3B20B70FB6ABB
:1045F8000833FB627B68D3E90423C7E90623D7E9BC
:104608000623F96A38680144D3B20B70D7E906016A
:104618004FF000024FF00003020A42EA01620B0A5F
:10462800F96A013138680144D3B20B70D7E9060141
:104638004FF000024FF00003020C42EA01420B0C5B
:10464800F96A023138680144D3B20B70D7E9060120
:104658004FF000024FF00003020E42EA01220B0E57
:10466800F96A033138680144D3B20B70D7E90601FF
:104678004FF000024FF000030A000023F96A0431EA
:1046880038680144D3B20B70D7E906014FF0000235
:104698004FF000030A0A0023F96A0531386801441B
:1046A800D3B20B70D7E906014FF000024FF00003B8
:1046B8000A0C0023F96A063138680144D3B20B703A
:1046C800D7E906014FF000024FF000030A0E00235D
:1046D800F96A073138680144D3B20B70FB6A0833B2
:1046E800FB627B68D3E90623C7E90423D7E90423DF
:1046F800F96A38680144D3B20B70D7E904014FF066
:1047080000024FF00003020A42EA01620B0AF96A4A
:10471800013138680144D3B20B70D7E904014FF076
:1047280000024FF00003020C42EA01420B0CF96A46
:10473800023138680144D3B20B70D7E904014FF055
:1047480000024FF00003020E42EA01220B0EF96A42
:10475800033138680144D3B20B70D7E904014FF034
:1047680000024FF000030A000023F96A0431386898
:104778000144D3B20B70D7E904014FF000024FF0A7
:1047880000030A0A0023F96A053138680144D3B2E4
:104798000B70D7E904014FF000024FF000030A0C38
:1047A8000023F96A063138680144D3B20B70D7E99F
:1047B80004014FF000024FF000030A0E0023F96ACB
:1047C800073138680144D3B20B70FB6A0833FB62C7
:1047D8007B68D3E90823C7E90223D7E90223F96AEA
:1047E80038680144D3B20B70D7E902014FF00002D8
:1047F8004FF00003020A42EA01620B0AF96A01312A
:1048080038680144D3B20B70D7E902014FF00002B7
:104818004FF00003020C42EA01420B0CF96A023124
:1048280038680144D3B20B70D7E902014FF0000297
:104838004FF00003020E42EA01220B0EF96A03311F
:1048480038680144D3B20B70D7E902014FF0000277
:104858004FF000030A000023F96A04313868014464
:10486800D3B20B70D7E902014FF000024FF00003FA
:104878000A0A0023F96A053138680144D3B20B707B
:10488800D7E902014FF000024FF000030A0C0023A1
:10489800F96A063138680144D3B20B70D7E90201CE
:1048A8004FF000024FF000030A0E0023F96A0731A7
:1048B80038680144D3B20B70FB6A0833FB62FB6AA9
:1048C80018463437BD465DF8047B70472DE9B00FB4
:1048D800ADF50F7D00AFC7F80C02C7F8081200232A
:1048E800C7F834324FF000024FF00003C7E98A23BB
:1048F800D7E98A01D7F83422D7F8083213441B784D
:10490800DBB200221C46154640EA040841EA0509C4
:10491800C7E98A89D7E98A01D7F834325A1CD7F807
:10492800083213441B78DBB200229A4693464FF0B4
:1049380000024FF000034FEA0B2343EA1A634FEAE1
:104948000A2240EA0204C7F800420B43C7F80432BF
:10495800D7E98034C7E98A34D7E98A01D7F83432ED
:104968009A1CD7F8083213441B78DBB20022C7F828
:10497800F831C7F8FC214FF000024FF00003D7E9E7
:104988007E894C462304444643EA144344462204A1
:1049980040EA0204C7F8F0410B43C7F8F431D7E9FD
:1049A8007C34C7E98A34D7E98A01D7F83432DA1C6B
:1049B800D7F8083213441B78DBB20022C7F8E83175
:1049C800C7F8EC21D7E97A4523461B0AC7F8E43132
:1049D80023461B06C7F8E031D7E978452346034349
:1049E800C7F8D8312B460B43C7F8DC31D7E9763402
:1049F800C7E98A34D7E98A01D7F834321A1DD7F8BB
:104A0800083213441B78DBB20022C7F8D031C7F84C
:104A1800D4214FF000024FF00003D7F8D041230013
:104A2800002240EA0204C7F8C8410B43C7F8CC315A
:104A3800D7E97234C7E98A34D7E98A01D7F834321A
:104A48005A1DD7F8083213441B78DBB20022C7F886
:104A5800C031C7F8C4214FF000024FF00003D7F867
:104A6800C0412302002240EA0204C7F8B8410B43C0
:104A7800C7F8BC31D7E96E34C7E98A34D7E98A0167
:104A8800D7F834329A1DD7F8083213441B78DBB2B2
:104A98000022C7F8B031C7F8B4214FF000024FF038
:104AA8000003D7F8B0412304002240EA0204C7F803
:104AB800A8410B43C7F8AC31D7E96A34C7E98A344F
:104AC800D7E98A01D7F83432DA1DD7F80832134407
:104AD8001B78DBB20022C7F8A031C7F8A4214FF039
:104AE80000024FF00003D7F8A0412306002240EA55
:104AF8000204C7F898410B43C7F89C31D7E96634DC
:104B0800C7E98A34D7E98A01D7F80C32C3E9020128
:104B1800D7F834320833C7F834324FF000024FF078
:104B28000003C7E98823D7E98801D7F83422D7F8E2
:104B3800083213441B78DBB20022C7F89031C7F85B
:104B48009421D7E9644523460343C7F888312B46A7
:104B58000B43C7F88C31D7E96234C7E98834D7E901
:104B68008801D7F834325A1CD7F8083213441B7816
:104B7800DBB20022C7F88031C7F884214FF0000269
:104B88004FF00003D7E960894C462302444643EAC4
:104B980014634446220240EA0204C7F878410B43F2
:104BA800C7F87C31D7E95E34C7E98834D7E988018A
:104BB800D7F834329A1CD7F8083213441B78DBB282
:104BC8000022C7F87031C7F874214FF000024FF087
:104BD8000003D7E95C894C462304444643EA14435E
:104BE8004446220440EA0204C7F868410B43C7F868
:104BF8006C31D7E95A34C7E98834D7E98801D7F83E
:104C08003432DA1CD7F8083213441B78DBB200229E
:104C1800C7F86031C7F86421D7E9584523461B0A0D
:104C2800C7F85C3123461B06C7F85831D7E9564503
:104C380023460343C7F850312B460B43C7F854317A
:104C4800D7E95434C7E98834D7E98801D7F834322A
:104C58001A1DD7F8083213441B78DBB20022C7F8B4
:104C68004831C7F84C214FF000024FF00003D7F845
:104C780048412300002240EA0204C7F840410B43A0
:104C8800C7F84431D7E95034C7E98834D7E98801EF
:104C9800D7F834325A1DD7F8083213441B78DBB2E0
:104CA8000022C7F83831C7F83C214FF000024FF016
:104CB8000003D7F838412302002240EA0204C7F86B
:104CC80030410B43C7F83431D7E94C34C7E988344D
:104CD800D7E98801D7F834329A1DD7F80832134437
:104CE8001B78DBB20022C7F82831C7F82C214FF017
:104CF80000024FF00003D7F828412304002240EABD
:104D08000204C7F820410B43C7F82431D7E94834D7
:104D1800C7E98834D7E98801D7F83432DA1DD7F8DB
:104D2800083213441B78DBB20022C7F81831C7F8E1
:104D38001C214FF000024FF00003D7F8184123065A
:104D4800002240EA0204C7F810410B43C7F81431A7
:104D5800D7E94434C7E98834D7E98801D7F80C3251
:104D6800C3E90401D7F834320833C7F834324FF0B6
:104D780000024FF00003C7E98623D7E98601D7F878
:104D88003422D7F8083213441B78DBB20022C7F864
:104D98000831C7F80C21D7E9424523460343C7F831
:104DA80000312B460B43C7F80431D7E94034C7E933
:104DB8008634D7E98601D7F834325A1CD7F8083236
:104DC80013441B78DBB20022C7F8F830C7F8FC2080
:104DD8004FF000024FF00003D7E93E894C4623020A
:104DE800444643EA14634446220240EA0204C7F8F0
:104DF800F0400B43C7F8F430D7E93C34C7E98634B0
:104E0800D7E98601D7F834329A1CD7F80832134408
:104E18001B78DBB20022C7F8E830C7F8EC204FF067
:104E280000024FF00003D7E93A894C462304444670
:104E380043EA14434446220440EA0204C7F8E04027
:104E48000B43C7F8E430D7E93834C7E98634D7E9E3
:104E58008601D7F83432DA1CD7F8083213441B78A5
:104E6800DBB20022C7F8D830C7F8DC20D7E93645CE
:104E780023461B0AC7F8D43023461B06C7F8D03090
:104E8800D7E9344523460343C7F8C8302B460B43BC
:104E9800C7F8CC30D7E93234C7E98634D7E9860178
:104EA800D7F834321A1DD7F8083213441B78DBB20E
:104EB8000022C7F8C030C7F8C4204FF000024FF0F6
:104EC8000003D7F8C0402300002240EA0204C7F8D4
:104ED800B8400B43C7F8BC30D7E92E34C7E986344D
:104EE800D7E98601D7F834325A1DD7F80832134467
:104EF8001B78DBB20022C7F8B030C7F8B4204FF0F7
:104F080000024FF00003D7F8B0402302002240EA25
:104F18000204C7F8A8400B43C7F8AC30D7E92A34D5
:104F2800C7E98634D7E98601D7F834329A1DD7F80D
:104F3800083213441B78DBB20022C7F8A030C7F848
:104F4800A4204FF000024FF00003D7F8A04023043C
:104F5800002240EA0204C7F898400B43C7F89C3087
:104F6800D7E92634C7E98634D7E98601D7F8343239
:104F7800DA1DD7F8083213441B78DBB20022C7F8D1
:104F88009030C7F894204FF000024FF00003D7F894
:104F980090402306002240EA0204C7F888400B43E9
:104FA800C7F88C30D7E92234C7E98634D7E98601B7
:104FB800D7F80C32C3E90601D7F834320833C7F8FA
:104FC80034324FF000024FF00003C7E98423D7E9D9
:104FD8008401D7F83422D7F8083213441B78DBB29F
:104FE8000022C7F88030C7F88420D7E92045234637
:104FF8000343BB672B460B43FB67D7E91E34C7E95E
:105008008434D7E98401D7F834325A1CD7F80832E7
:1050180013441B78DBB200223B677A674FF000022B
:105028004FF00003D7E91C894C462302444643EA63
:1050380014634446220240EA0204BC660B43FB6642
:10504800D7E91A34C7E98434D7E98401D7F8343268
:105058009A1CD7F8083213441B78DBB200223B664F
:105068007A664FF000024FF00003D7E918894C46E2
:105078002304444643EA14434446220440EA020413
:10508800BC650B43FB65D7E91634C7E98434D7E917
:105098008401D7F83432DA1CD7F8083213441B7865
:1050A800DBB200223B657A65D7E9144523461B0A23
:1050B800FB6423461B06BB64D7E91245234603431A
:1050C8003B642B460B437B64D7E91034C7E984342F
:1050D800D7E98401D7F834321A1DD7F808321344B7
:1050E8001B78DBB20022BB63FA634FF000024FF07B
:1050F8000003BC6B2300002240EA02043C630B431C
:105108007B63D7E90C34C7E98434D7E98401D7F83D
:1051180034325A1DD7F8083213441B78DBB2002208
:10512800BB62FA624FF000024FF00003BC6A230230
:10513800002240EA02043C620B437B62D7E9083450
:10514800C7E98434D7E98401D7F834320633D7F86D
:10515800082213441B78DBB20022BB61FA614FF0CE
:1051680000024FF00003BC692304002240EA020455
:105178003C610B437B61D7E90434C7E98434D7E940
:105188008401D7F834320733D7F8082213441B7840
:10519800DBB20022BB60FA604FF000024FF0000360
:1051A800BC682306002240EA02043C600B437B6093
:1051B800D7E90034C7E98434D7E98423D7F80C1237
:1051C800C1E90823D7F834320833C7F83432D7F89E
:1051D8003432184607F50F77BD46BDE8B00F704763
:1051E80080B483B000AF7860034B18460C37BD46D7
:1051F8005DF8047B704700BF2CFD000880B483B0C5
:1052080000AF7860034B18460C37BD465DF8047B49
:10521800704700BF48FD000880B582B000AF7860D5
:105228007B681846FCF7AEFE244A7B681A607B68E8
:1052380004331846FEF79EFF7B6818331846FFF7BD
:105248002DF97B6803F14002082307E04FF00000C6
:105258004FF00001C2E900010832013B002BF5DAEA
:105268007B6888331846FEF7EBF97B6803F1A802E0
:10527800082307E04FF000004FF00001C2E90001E9
:105288000832013B002BF5DA7B68F0331846FEF74D
:10529800D7F97B6803F58872082307E04FF0000010
:1052A8004FF00001C2E900010832013B002BF5DA9A
:1052B8007B6818460837BD4680BD00BF70FE0008F1
:1052C80080B58CB000AF786039600023FB627B68E2
:1052D800181DFB6A3A6813441946FEF76BFF02462D
:1052E800FB6A1344FB627B6803F11800FB6A3A68A7
:1052F80013441946FFF700F90246FB6A1344FB62A0
:105308000023BB627DE07A68BB6A0833DB00134484
:10531800D3E90023C7E90623D7E90623F96A3868E1
:105328000144D3B20B70D7E906014FF000024FF0E9
:105338000003020A42EA01620B0AF96A013138687D
:105348000144D3B20B70D7E906014FF000024FF0C9
:105358000003020C42EA01420B0CF96A0231386878
:105368000144D3B20B70D7E906014FF000024FF0A9
:105378000003020E42EA01220B0EF96A0331386873
:105388000144D3B20B70D7E906014FF000024FF089
:1053980000030A000023F96A043138680144D3B2D3
:1053A8000B70D7E906014FF000024FF000030A0A1C
:1053B8000023F96A053138680144D3B20B70D7E984
:1053C80006014FF000024FF000030A0C0023F96AAF
:1053D800063138680144D3B20B70D7E906014FF0A3
:1053E80000024FF000030A0E0023F96A07313868FB
:1053F8000144D3B20B70FB6A0833FB62BB6A01330A
:10540800BB62BB6A082B7FF67EAF7B6803F188001E
:10541800FB6A3A6813441946FEF73AF90246FB6AF2
:105428001344FB6200237B627DE07A687B6A153354
:10543800DB001344D3E90023C7E90423D7E9042395
:10544800F96A38680144D3B20B70D7E904014FF008
:1054580000024FF00003020A42EA01620B0AF96AED
:10546800013138680144D3B20B70D7E904014FF019
:1054780000024FF00003020C42EA01420B0CF96AE9
:10548800023138680144D3B20B70D7E904014FF0F8
:1054980000024FF00003020E42EA01220B0EF96AE5
:1054A800033138680144D3B20B70D7E904014FF0D7
:1054B80000024FF000030A000023F96A043138683B
:1054C8000144D3B20B70D7E904014FF000024FF04A
:1054D80000030A0A0023F96A053138680144D3B287
:1054E8000B70D7E904014FF000024FF000030A0CDB
:1054F8000023F96A063138680144D3B20B70D7E942
:1055080004014FF000024FF000030A0E0023F96A6D
:10551800073138680144D3B20B70FB6A0833FB6269
:105528007B6A01337B627B6A082B7FF67EAF7B68E0
:1055380003F1F000FB6A3A6813441946FEF7A8F82D
:105548000246FB6A1344FB6200233B627DE07A68F3
:105558003B6A2233DB001344D3E90023C7E9022363
:10556800D7E90223F96A38680144D3B20B70D7E946
:1055780002014FF000024FF00003020A42EA016202
:105588000B0AF96A013138680144D3B20B70D7E9C4
:1055980002014FF000024FF00003020C42EA014200
:1055A8000B0CF96A023138680144D3B20B70D7E9A1
:1055B80002014FF000024FF00003020E42EA0122FE
:1055C8000B0EF96A033138680144D3B20B70D7E97E
:1055D80002014FF000024FF000030A000023F96AAD
:1055E800043138680144D3B20B70D7E902014FF097
:1055F80000024FF000030A0A0023F96A05313868EF
:105608000144D3B20B70D7E902014FF000024FF00A
:1056180000030A0C0023F96A063138680144D3B242
:105628000B70D7E902014FF000024FF000030A0E99
:105638000023F96A073138680144D3B20B70FB6A5A
:105648000833FB623B6A01333B623B6A082B7FF6F7
:105658007EAFFB6A18463037BD4680BD2DE9F04F56
:10566800EDB000AFC7F88401C7F880110023C7F870
:10567800AC31D7F88431181DD7F8AC21D7F8803170
:1056880013441946FEF72EFE0246D7F8AC311344F0
:10569800C7F8AC31D7F8843103F11800D7F8AC213A
:1056A800D7F8803113441946FFF710F90246D7F8A6
:1056B800AC311344C7F8AC310023C7F8A83123E153
:1056C8004FF000024FF00003C7E96623D7E96601EF
:1056D800D7F8AC21D7F8803113441B78DBB200220D
:1056E800C7F87831C7F87C21D7F878310343C7F871
:1056F8006831D7F87C310B43C7F86C31D7E95A23A6
:10570800C7E96623D7E96601D7F8AC315A1CD7F840
:10571800803113441B78DBB200229A4693464FF03F
:1057280000024FF000034FEA0B2343EA1A634FEAE3
:105738000A2240EA0206C7F860610B43C7F86431E1
:10574800D7E95823C7E96623D7E96601D7F8AC310A
:105758009A1CD7F8803113441B78DBB20022984694
:1057680091464FF000024FF000034FEA094343EA25
:1057780018434FEA084240EA0206C7F858610B434B
:10578800C7F85C31D7E95623C7E96623D7E966012C
:10579800D7F8AC31DA1CD7F8803113441B78DBB268
:1057A8000022C7F87031C7F87421D7F870311D0A84
:1057B800D7F870311C0640EA0403C7F8503141EAB3
:1057C8000503C7F85431D7E95423C7E96623D7E955
:1057D8006601D7F8AC311A1DD7F8803113441B780D
:1057E800DBB20022C7F84831C7F84C214FF000025D
:1057F8004FF00003D7F848613300002240EA020660
:10580800C7F840610B43C7F84431D7E95023C7E9CB
:105818006623D7E96601D7F8AC315A1DD7F880312D
:1058280013441B78DBB20022C7F83831C7F83C2193
:105838004FF000024FF00003D7F83861330200221E
:1058480040EA0206C7F830610B43C7F83431D7E99C
:105858004C23C7E96623D7E96601D7F8AC319A1D0E
:10586800D7F8803113441B78DBB20022C7F82831FF
:10587800C7F82C214FF000024FF00003D7F8286139
:105888003304002240EA0206C7F820610B43C7F838
:105898002431D7E94823C7E96623D7E96601D7F851
:1058A800AC31DA1DD7F8803113441B78DBB2002203
:1058B800C7F81831C7F81C214FF000024FF0000359
:1058C800D7F818613306002240EA0206C7F81061CB
:1058D8000B43C7F81431D7E94423C7E96623D7E94E
:1058E8006601D7F88421D7F8A8310833DB001344C0
:1058F800C3E90001D7F8AC310833C7F8AC31D7F8A1
:10590800A8310133C7F8A831D7F8A831082B7FF69A
:10591800D7AED7F8843103F18800D7F8AC21D7F88F
:10592800803113441946FEF726F80246D7F8AC3101
:105938001344C7F8AC310023C7F8A43133E14FF062
:1059480000024FF00003C7E96423D7E96401D7F8E0
:10595800AC21D7F8803113441B78DBB20022C7F89A
:105968000831C7F80C21D7E9424523460343C7F855
:1059780000312B460B43C7F80431D7E94034C7E957
:105988006434D7E96401D7F8AC315A1CD7F88031B0
:1059980013441B78DBB20022C7F8F830C7F8FC20A4
:1059A8004FF000024FF00003D7E93E563446230279
:1059B8002C4643EA14632C46220240EA0204C7F844
:1059C800F0400B43C7F8F430D7E93C34C7E96434F6
:1059D800D7E96401D7F8AC319A1CD7F88031134461
:1059E8001B78DBB20022C7F8E830C7F8EC204FF08C
:1059F80000024FF00003D7E93A56344623042C46F8
:105A080043EA14432C46220440EA0204C7F8E04063
:105A18000B43C7F8E430D7E93834C7E96434D7E929
:105A28006401D7F8AC31DA1CD7F8803113441B78FD
:105A3800DBB20022C7F8D830C7F8DC20D7E93645F2
:105A480023461B0AC7F8D43023461B06C7F8D030B4
:105A5800D7E9344523460343C7F8C8302B460B43E0
:105A6800C7F8CC30D7E93234C7E96434D7E96401E0
:105A7800D7F8AC311A1DD7F8803113441B78DBB244
:105A88000022C7F8C030C7F8C4204FF000024FF01A
:105A98000003D7F8C0402300002240EA0204C7F8F8
:105AA800B8400B43C7F8BC30D7E92E34C7E9643493
:105AB800D7E96401D7F8AC315A1DD7F880311344BF
:105AC8001B78DBB20022C7F8B030C7F8B4204FF01B
