:020000040800F2
:1000000000000220554A0008194900081F4900084D
:10001000254900082B49000831490008000000006C
:100020000000000000000000000000003749000848
:1000300045490008000000005349000861490008D4
:10004000A54A0008A54A0008A54A0008A54A0008D4
:10005000A54A0008A54A0008A54A0008A54A0008C4
:10006000A54A0008A54A0008A54A0008A54A0008B4
:10007000A54A0008A54A0008A54A0008A54A0008A4
:100080006D49000881490008A54A0008A54A0008F2
:10009000A54A0008A54A0008A54A0008A54A000884
:1000A00095490008A54A0008A54A0008A54A000885
:1000B000A54A0008A54A0008A54A0008A54A000864
:1000C000A54A0008A54A0008A54A0008A54A000854
:1000D000A54A0008A54A0008B1490008A54A000839
:1000E000A54A0008A54A0008A54A0008A54A000834
:1000F000A54A0008A54A0008A54A0008A54A000824
:10010000A54A0008A54A0008A54A0008A54A000813
:10011000A54A0008A54A0008A54A0008A54A000803
:10012000A54A0008A54A0008A54A0008A54A0008F3
:10013000A54A0008A54A0008A54A0008A54A0008E3
:10014000A54A0008A54A0008A54A0008A54A0008D3
:10015000A54A0008A54A0008A54A0008A54A0008C3
:10016000A54A0008A54A0008A54A0008A54A0008B3
:10017000A54A0008A54A0008A54A0008000000009A
:08018000A54A0008A54A000889
:1001880010B5054C237833B9044B13B10448AFF3C9
:1001980000800123237010BDA8000020000000008B
:1001A800748E000808B5034B1BB103490348AFF32D
:1001B800008008BD00000000AC000020748E00081C
:1001C800034613F8012B002AFBD1181A013870478F
:1001D80081F0004102E000BF83F0004330B54FEAF0
:1001E80041044FEA430594EA050F08BF90EA020F5D
:1001F8001FBF54EA000C55EA020C7FEA645C7FEAF0
:10020800655C00F0E2804FEA5454D4EB5555B8BF12
:100218006D420CDD2C4480EA020281EA030382EA83
:10022800000083EA010180EA020281EA0303362D15
:1002380088BF30BD11F0004F4FEA01314FF4801CE8
:100248004CEA113102D0404261EB410113F0004FFA
:100258004FEA03334CEA133302D0524263EB4303B1
:1002680094EA050F00F0A780A4F10104D5F1200E4F
:100278000DDB02FA0EFC22FA05F2801841F10001AA
:1002880003FA0EF2801843FA05F359410EE0A5F17E
:1002980020050EF1200E012A03FA0EFC28BF4CF0AF
:1002A800020C43FA05F3C01851EBE37101F0004565
:1002B80007D54FF0000EDCF1000C7EEB00006EEB72
:1002C8000101B1F5801F1BD3B1F5001F0CD34908FC
:1002D8005FEA30004FEA3C0C04F101044FEA445253
:1002E80012F5800F80F09A80BCF1004F08BF5FEADA
:1002F800500C50F1000041EB045141EA050130BDBA
:100308005FEA4C0C404141EB0101013C28BFB1F5CB
:10031800801FE9D291F0000F04BF01460020B1FA16
:1003280081F308BF2033A3F10B03B3F120020CDAE9
:100338000C3208DD02F1140CC2F10C0201FA0CF0C7
:1003480021FA02F10CE002F11402D8BFC2F1200C2C
:1003580001FA02F120FA0CFCDCBF41EA0C019040E2
:10036800E41AA2BF01EB0451294330BD6FEA04042B
:100378001F3C1CDA0C340EDC04F11404C4F1200216
:1003880020FA04F001FA02F340EA030021FA04F328
:1003980045EA030130BDC4F10C04C4F1200220FA7F
:1003A80002F001FA04F340EA0300294630BD21FABD
:1003B80004F0294630BD94F0000F83F4801306BF83
:1003C80081F480110134013D4EE77FEA645C18BF77
:1003D8007FEA655C29D094EA050F08BF90EA020F0E
:1003E80005D054EA000C04BF1946104630BD91EA06
:1003F800030F1EBF0021002030BD5FEA545C05D109
:100408004000494128BF41F0004130BD14F5800447
:100418003CBF01F5801130BD01F0004545F0FE41BB
:1004280041F470014FF0000030BD7FEA645C1ABFF0
:10043800194610467FEA655C1CBF0B46024650EA27
:10044800013406BF52EA033591EA030F41F4002153
:1004580030BD00BF90F0000F04BF0021704730B5D9
:100468004FF4806404F132044FF000054FF00001AE
:1004780050E700BF90F0000F04BF0021704730B56F
:100488004FF4806404F1320410F0004548BF404244
:100498004FF000013EE700BF42004FEAE2014FEA99
:1004A80031014FEA02701FBF12F07F4393F07F4F74
:1004B80081F06051704732F07F4208BF704793F077
:1004C8007F4F04BF41F40021704730B54FF460748A
:1004D80001F0004521F000411CE700BF50EA01028D
:1004E80008BF704730B54FF000050AE050EA010236
:1004F80008BF704730B511F0004502D5404261EBA6
:1005080041014FF4806404F132045FEA915C3FF4E6
:10051800D8AE4FF003025FEADC0C18BF03325FEA83
:10052800DC0C18BF033202EBDC02C2F1200300FA34
:1005380003FC20FA02F001FA03FE40EA0E0021FA59
:1005480002F11444BDE600BF70B54FF0FF0C4CF447
:10055800E06C1CEA11541DBF1CEA135594EA0C0FF9
:1005680095EA0C0F00F0DEF82C4481EA030621EA34
:100578004C5123EA4C5350EA013518BF52EA03356F
:1005880041F4801143F4801338D0A0FB02CE4FF021
:100598000005E1FB02E506F00042E0FB03E54FF051
:1005A8000006E1FB03569CF0000F18BF4EF0010E49
:1005B800A4F1FF04B6F5007F64F5407404D25FEA45
:1005C8004E0E6D4146EB060642EAC62141EA5551F8
:1005D8004FEAC52040EA5E504FEACE2EB4F1FD0C3A
:1005E80088BFBCF5E06F1ED8BEF1004F08BF5FEAB8
:1005F800500E50F1000041EB045170BD06F000466A
:1006080046EA010140EA020081EA0301B4EB5C0416
:10061800C2BFD4EB0C0541EA045170BD41F480110E
:100628004FF0000E013C00F3AB8014F1360FDEBF33
:10063800002001F0004170BDC4F10004203C35DA0F
:100648000C341BDC04F11404C4F1200500FA05F392
:1006580020FA04F001FA05F240EA020001F0004233
:1006680021F0004110EBD37021FA04F642EB0601A9
:100678005EEA430E08BF20EAD37070BDC4F10C04D3
:10068800C4F1200500FA04F320FA05F001FA04F297
:1006980040EA020001F0004110EBD37041F1000183
:1006A8005EEA430E08BF20EAD37070BDC4F120058E
:1006B80000FA05F24EEA020E20FA04F301FA05F2F6
:1006C80043EA020321FA04F001F0004121FA04F29E
:1006D80020EA020000EBD3705EEA430E08BF20EA6E
:1006E800D37070BD94F0000F0FD101F000464000A8
:1006F80041EB010111F4801F08BF013CF7D041EA2A
:10070800060195F0000F18BF704703F0004652002D
:1007180043EB030313F4801F08BF013DF7D043EAFE
:100728000603704794EA0C0F0CEA135518BF95EAB4
:100738000C0F0CD050EA410618BF52EA4306D1D13B
:1007480081EA030101F000414FF0000070BD50EA5A
:10075800410606BF1046194652EA430619D094EAE4
:100768000C0F02D150EA013613D195EA0C0F05D1CE
:1007780052EA03361CBF104619460AD181EA030122
:1007880001F0004141F0FE4141F470014FF00000DA
:1007980070BD41F0FE4141F4780170BD70B54FF075
:1007A800FF0C4CF4E06C1CEA11541DBF1CEA1355F5
:1007B80094EA0C0F95EA0C0F00F0A7F8A4EB0504D7
:1007C80081EA030E52EA03354FEA013100F08880CE
:1007D8004FEA03334FF0805545EA131343EA126397
:1007E8004FEA022245EA111545EA10654FEA00264C
:1007F8000EF000419D4208BF964244F1FD0404F505
:10080800407402D25B084FEA3202B61A65EB030560
:100818005B084FEA32024FF480104FF4002CB6EB1D
:10082800020E75EB030E22BFB61A754640EA0C009D
:100838005B084FEA3202B6EB020E75EB030E22BFDD
:10084800B61A754640EA5C005B084FEA3202B6EB1E
:10085800020E75EB030E22BFB61A754640EA9C00DD
:100868005B084FEA3202B6EB020E75EB030E22BFAD
:10087800B61A754640EADC0055EA060E18D04FEA6B
:10088800051545EA16754FEA06164FEAC30343EA0B
:1008980052734FEAC2025FEA1C1CC0D111F4801FD8
:1008A8000BD141EA00014FF000004FF0004CB6E7D1
:1008B80011F4801F04BF01430020B4F1FD0C88BF70
:1008C800BCF5E06F3FF6AFAEB5EB030C04BFB6EB7B
:1008D800020C5FEA500C50F1000041EB045170BD6E
:1008E8000EF0004E4EEA113114EB5C04C2BFD4EB9B
:1008F8000C0541EA045170BD41F480114FF0000E1F
:10090800013C90E645EA060E8DE60CEA135594EA9A
:100918000C0F08BF95EA0C0F3FF43BAF94EA0C0F9D
:100928000AD150EA01347FF434AF95EA0C0F7FF412
:1009380025AF104619462CE795EA0C0F06D152EA66
:1009480003353FF4FDAE1046194622E750EA41064A
:1009580018BF52EA43067FF4C5AE50EA41047FF45B
:100968000DAF52EA43057FF4EBAE12E74FF0FF3CC0
:1009780006E000BF4FF0010C02E000BF4FF0010C91
:100988004DF804CD4FEA410C7FEA6C5C4FEA430C0A
:1009980018BF7FEA6C5C1BD001B050EA410C0CBF59
:1009A80052EA430C91EA030F02BF90EA020F0020BB
:1009B800704710F1000F91EA030F58BF994208BF22
:1009C80090422CBFD8176FEAE37040F001007047DF
:1009D8004FEA410C7FEA6C5C02D150EA013C07D136
:1009E8004FEA430C7FEA6C5CD6D152EA033CD3D081
:1009F8005DF8040B704700BF8446104662468C467B
:100A08001946634600E000BF01B5FFF7B7FF0028AD
:100A180048BF10F1000F01BD4DF808EDFFF7F4FFD6
:100A28000CBF012000205DF808FB00BF4DF808ED61
:100A3800FFF7EAFF34BF012000205DF808FB00BF84
:100A48004DF808EDFFF7E0FF94BF012000205DF8A6
:100A580008FB00BF4DF808EDFFF7CEFF94BF01205B
:100A680000205DF808FB00BF4DF808EDFFF7C4FF54
:100A780034BF012000205DF808FB00BF4FEA410C9D
:100A88007FEA6C5C02D150EA013C0AD14FEA430C80
:100A98007FEA6C5C02D152EA033C02D14FF00000BD
:100AA80070474FF0010070474FEA4102B2F1E0434E
:100AB80024BFB3F5001CDCF1FE5C0DD901F0004C3D
:100AC8004FEAC0024CEA5070B2F1004F40EB83008D
:100AD80008BF20F00100704711F0804F21D113F1B9
:100AE8003872BCBF01F00040704741F480114FEAF2
:100AF8005252C2F11802C2F1200C10FA0CF320FA7B
:100B080002F018BF40F001004FEAC1234FEAD32397
:100B180003FA0CFC40EA0C0023FA02F34FEA430301
:100B2800CCE77FEA625307D150EA01331EBF4FF08A
:100B3800FE4040F44000704701F0004040F0FE40A5
:100B480040F40000704700BF53B94AB9002908BFF4
:100B580000281CBF4FF0FF314FF0FF3000F070B994
:100B6800ADF1080C6DE904CE00F006F8DDF804E0FC
:100B7800DDE9022304B070472DE9F047089E0D46D1
:100B880004460F46002B4AD18A42944665D9B2FAE8
:100B980082F343B102FA03FCC3F120029F4020FA1A
:100BA80002F217439C404FEA1C4E1FFA8CF5B7FB24
:100BB800FEF1220C0EFB117742EA074201FB05F019
:100BC80090420AD91CEB020201F1FF3780F01C8128
:100BD800904240F2198102396244121AA4B2B2FB5F
:100BE800FEF00EFB102244EA024400FB05F5A54284
:100BF8000AD91CEB040400F1FF3280F00781A542FA
:100C080040F204816444023840EA0140641B002138
:100C18001EB1DC400023C6E90043BDE8F0878B42E3
:100C280008D9002E00F0ED800021C6E9000508462D
:100C3800BDE8F087B3FA83F1002949D1AB4202D36A
:100C4800824200F2F880841A65EB030201201746FD
:100C5800002EE2D0C6E90047DFE702B9FFDEB2FAAC
:100C680082F3002B40F090808A1A4FEA1C471FFA43
:100C78008CFE0121B2FBF7F507FB1520220C42EA96
:100C880000420EFB05F0904208D91CEB020205F168
:100C9800FF3802D2904200F2CB804546121AA4B225
:100CA800B2FBF7F007FB102244EA02440EFB00FEF9
:100CB800A64508D91CEB040400F1FF3202D2A64570
:100CC80000F2BB801046A4EB0E0440EA05409FE703
:100CD800C1F120078B4022FA07FC4CEA030C05FA05
:100CE80001F420FA07F3FD404FEA1C492343B5FB02
:100CF800F9F81FFA8CFE09FB18551C0C44EA054448
:100D080008FB0EF5A54202FA01F200FA01F00BD930
:100D18001CEB040408F1FF3A80F08880A54240F2F9
:100D28008580A8F102086444641B9DB2B4FBF9F302
:100D380009FB134445EA044403FB0EFEA64508D903
:100D48001CEB040403F1FF356CD2A6456AD9023BBB
:100D5800644443EA0843A3FB0295A4EB0E04AC42A7
:100D6800C846AE4656D353D056B1B0EB080264EB32
:100D78000E0404FA07F7CA40CC401743C6E90074CA
:100D880018460021BDE8F087C3F1200102FA03FCF0
:100D980020FA01F225FA01F19D402A434FEA1C4747
:100DA8001FFA8CFEB1FBF7F007FB1015110C41EA96
:100DB800054100FB0EF58D4204FA03F408D91CEB3B
:100DC800010100F1FF382FD28D422DD9023861443C
:100DD800491B92B2B1FBF7F507FB151142EA014234
:100DE80005FB0EF1914208D91CEB020205F1FF3810
:100DF80016D2914214D9023D6244521A45EA004182
:100E080038E73146304608E73946E6E61046FBE65D
:100E18004845A9D2B9EB020865EB0C0E013BA3E7E4
:100E28004546EAE72B4694E74046D1E7D0467BE7BC
:100E3800023D624432E708460AE76444023842E762
:100E4800704700BF80B485B000AF786039603B68F8
:100E58001B685A0A0F49A1FB0212D2090E4901FB6D
:100E680002F29B1AFB603B681B685B0A094AA2FBFB
:100E78000323DB09BB607B681A68BB681A447B687C
:100E88001A603B68FA681A6000BF1437BD465DF8FF
:100E9800047B7047834B040000CA9A3B80B582B03C
:100EA80000AF00237B60BEE0B14A7B689B0013441F
:100EB80093ED007AAF4A7B689B001344D3ED007A28
:100EC80077EE677AAC4A7B689B001344C3ED007ADF
:100ED800AA4A7B689B00134493ED007AA64A7B6874
:100EE8009B001344D3ED006AA54A7B689B0013441A
:100EF800D3ED007A76EEA76AB0EE006AC6EE867A7F
:100F080077EE277A9D4A7B689B001344C3ED007AED
:100F1800994A7B689B00134493ED007A984A7B6852
:100F28009B001344D3ED007A77EE677A954A7B6885
:100F38009B001344C3ED007A8F4A7B689B001344DF
:100F48001A688F497B689B000B441A608E4A7B683D
:100F580032F9133007EE903AB8EEE77A8B4A7B689D
:100F68009B001344D3ED006A834A7B689B001344BB
:100F7800D3ED007A66EEA76A854A7B689B00134426
:100F880093ED006A834BD3ED007A26EE276A7B4AFD
:100F98007B689B001344D3ED007A66EE277A76EEE1
:100FA800A76A7D4A7B689B00134493ED006A794BDE
:100FB800D3ED005AB7EE005AC5EE257A26EE276A19
:100FC800704A7B689B001344D3ED007A66EE277A5B
:100FD80076EEA77A77EE277AFDEEE77A17EE903A63
:100FE80019B2694A7B6822F81310674A7B6832F99C
:100FF8001330B3F57A7F06DB634A7B6840F2E7314A
:1010080022F813100CE0604A7B6832F9133013F5AC
:101018007A7F05DC5C4A7B684FF6194122F8131089
:101028007B6801337B607B68032B7FF73DAF564BB2
:10103800B3F90030002B10DB01222021574804F0BF
:1010480075FC00220121564804F070FC4E4BB3F9A0
:101058000020544B1B685A6315E04B4BB3F9003022
:10106800002B10DA002220214C4804F05FFC0122FA
:1010780001214B4804F05AFC434BB3F900305A4263
:10108800484B1B685A63404BB3F90230002B10DB06
:1010980001220221424804F049FC00220421404870
:1010A80004F044FC384BB3F902203E4B1B689A63AA
:1010B80015E0354BB3F90230002B10DA002202217B
:1010C800374804F033FC01220421354804F02EFC93
:1010D8002D4BB3F902305A42324B1B689A632A4BA4
:1010E800B3F90430002B12DB01224FF480512C4855
:1010F80004F01CFC00224FF40051294804F016FCAF
:10110800214BB3F90420274B1B68DA6317E01E4B09
:10111800B3F90430002B12DA00224FF48051204832
:1011280004F004FC01224FF400511D4804F0FEFBBA
:10113800154BB3F904305A421A4B1B68DA63124B49
:10114800B3F90630002B2FDB01224FF480411448FD
:1011580004F0ECFB00224FF40041114804F0E6FBD8
:10116800094BB3F906200F4B1B681A6434E000BF23
:10117800000000207803002098030020A803002026
:10118800B8030020C8030020D80300201000002066
:1011980020000020300000208803002000080240C2
:1011A80000040240C40000200F4BB3F90630002BA6
:1011B80012DA00224FF480410C4804F0B7FB0122F8
:1011C8004FF40041094804F0B1FB074BB3F906306E
:1011D8005A42074B1B681A64064B00221A7000BF5C
:1011E8000837BD4680BD00BFD80300200004024078
:1011F800C4000020FC03002080B485B000AF7860F4
:101208007B681B684C4A934240F090804B4B1B68AC
:101218005B6A9AB24A4B1A804A4B1B685B6A9AB25D
:10122800474B5A80484B1B685B6A9AB2444B9A807A
:10123800464B1B685B6A9AB2414BDA800023FB601D
:101248006EE03F4AFB6832F813301946404AFB68A3
:1012580032F81330CB1A47F2305293420FDD384A36
:10126800FB6832F813203A49FB6831F81330D31A77
:101278009BB219B2374AFB6822F813102BE0304AA8
:10128800FB6832F813301946314AFB6832F81330DC
:10129800CB1A314A93420FDA294AFB6832F81320F5
:1012A8002B49FB6831F81330D31A9BB219B2294A7B
:1012B800FB6822F813100EE0214AFB6832F813206D
:1012C8002349FB6831F81330D31A9BB219B2214A6B
:1012D800FB6822F813101F4AFB6832F9133007EE37
:1012E800903AF8EEE77A9FED1D7A67EE877AB1EECD
:1012F800047A27EE877ADFED1A6AC7EE267A194A4A
:10130800FB689B001344C3ED007A0D4AFB6832F872
:1013180013100F4AFB6822F81310FB680133FB60B7
:10132800FB68032B8DDD104B01221A7000BF1437A8
:10133800BD465DF8047B7047004001400C01002069
:10134800E0030020540100209C010020E40100205B
:10135800E8030020F0030020D08AFFFF000070425D
:101368000080794478030020FC03002080B500AF9A
:1013780003F096FB00F04EF800F0CEFB00F0A4FB63
:1013880000F074FB00F0B6F900F012FA00F06EFA03
:1013980000F0CAFA00F0B2F800F024FB0021164869
:1013A80005F050F80421144805F04CF808211248BB
:1013B80005F048F80C21104805F044F83C210F4886
:1013C80005F0AEF93C210E4805F0AAF93C210D487C
:1013D80005F0A6F93C210C4805F0A2F90B4804F0E9
:1013E80067FF02F099F80A4B1B78002B01D0FFF732
:1013F80055FD02F0ADF8F6E7C40000200C0100200E
:10140800540100209C010020E40100202C0200204F
:10141800FC03002080B594B000AF07F12003302210
:101428000021184607F0CFFB07F10C0300221A60D1
:101438005A609A60DA601A610023BB602D4B1B6CFE
:101448002C4A43F0805313642A4B1B6C03F08053DF
:10145800BB60BB6800237B60274B1B68264A43F4AC
:1014680080431360244B1B6803F480437B607B68D4
:1014780002233B620123FB6210233B630223BB630D
:101488000023FB6308233B64A8237B640223BB641B
:101498000423FB6407F12003184604F061FA0346AD
:1014A800002B14BF01230023DBB2002B01D000F076
:1014B800DBFB0F23FB6002233B6100237B614FF4BE
:1014C800A053BB614FF48053FB6107F10C03052166
:1014D800184604F0BDFC0346002B14BF012300236B
:1014E800DBB2002B01D000F0BFFB00BF5037BD4678
:1014F80080BD00BF003802400070004080B596B043
:1015080000AF07F1480300221A605A609A60DA6057
:1015180007F1400300221A605A6007F124030022F1
:101528001A605A609A60DA601A615A619A613B1DC2
:1015380020220021184607F046FB6C4B6C4A1A60C3
:101548006A4BA7225A60694B00229A60674B40F2A7
:10155800E732DA60654B00221A61644B00225A6157
:10156800624B80229A61614804F052FE0346002BC8
:1015780014BF01230023DBB2002B01D000F074FB61
:101588004FF48053BB6407F148031946574805F0E8
:101598001FFB0346002B14BF01230023DBB2002BE3
:1015A80001D000F061FB514804F0F2FE0346002B25
:1015B80014BF01230023DBB2002B01D000F054FB41
:1015C80000233B6400237B6407F140031946474826
:1015D80005F0FEFE0346002B14BF01230023DBB2F7
:1015E800002B01D000F040FB60237B6240F2E73320
:1015F800BB620023FB6200233B6300237B63002361
:10160800BB630023FB6307F1240300221946374814
:1016180005F01CFA0346002B14BF01230023DBB29C
:10162800002B01D000F020FB40F21F33BB6207F112
:101638002403042219462D4805F008FA0346002B16
:1016480014BF01230023DBB2002B01D000F00CFBF8
:1016580040F25723BB6207F12403082219462348A6
:1016680005F0F4F90346002B14BF01230023DBB275
:10167800002B01D000F0F8FA40F28F13BB6207F19B
:1016880024030C221946194805F0E0F90346002BFB
:1016980014BF01230023DBB2002B01D000F0E4FAD1
:1016A80000237B600023BB600023FB6000233B61B9
:1016B80000237B614FF40053BB6100233B623B1D59
:1016C80019460A4805F000FF0346002B14BF012302
:1016D8000023DBB2002B01D000F0C6FA034803F068
:1016E80027F800BF5837BD4680BD00BFC4000020A2
:1016F8000000014080B58CB000AF07F10C03242234
:101708000021184607F05FFA3B1D00221A605A6054
:10171800264B4FF080421A60244B00225A60234B1C
:1017280000229A60214B4FF6FF72DA601F4B0022AD
:101738001A611E4B00229A610323FB6000233B6160
:1017480001237B610023BB610023FB6100233B6213
:1017580001237B620023BB620023FB6207F10C03B9
:101768001946124804F036FF0346002B14BF012324
:101778000023DBB2002B01D000F076FA00237B6057
:101788000023BB603B1D1946084805F021FE0346AF
:10179800002B14BF01230023DBB2002B01D000F083
:1017A80063FA00BF3037BD4680BD00BF0C01002082
:1017B80080B58CB000AF07F10C0324220021184635
:1017C80007F001FA3B1D00221A605A60254B264A91
:1017D8001A60244B00225A60224B00229A60214B47
:1017E8004FF6FF72DA601F4B00221A611D4B002270
:1017F8009A610323FB6000233B6101237B61002383
:10180800BB610023FB6100233B6201237B62002351
:10181800BB620023FB6207F10C031946114804F070
:10182800D9FE0346002B14BF01230023DBB2002B93
:1018380001D000F019FA00237B600023BB603B1D38
:101848001946084805F0C4FD0346002B14BF0123C0
:101858000023DBB2002B01D000F006FA00BF3037BE
:10186800BD4680BD540100200004004080B58CB006
:1018780000AF07F10C0324220021184607F0A3F952
:101888003B1D00221A605A60254B264A1A60244BD9
:1018980000225A60224B00229A60214B4FF6FF72B9
:1018A800DA601F4B00221A611D4B00229A61032344
:1018B800FB6000233B6101237B610023BB610023A4
:1018C800FB6100233B6201237B620023BB62002390
:1018D800FB6207F10C031946114804F07BFE03462E
:1018E800002B14BF01230023DBB2002B01D000F032
:1018F800BBF900237B600023BB603B1D19460848E9
:1019080005F066FD0346002B14BF01230023DBB25C
:10191800002B01D000F0A8F900BF3037BD4680BDCC
:101928009C0100200008004080B58CB000AF07F192
:101938000C0324220021184607F045F93B1D00221C
:101948001A605A60254B264A1A60244B00225A60B6
:10195800224B00229A60214B4FF6FF72DA601F4B30
:1019680000221A611D4B00229A610323FB600023A9
:101978003B6101237B610023BB610023FB610023E2
:101988003B6201237B620023BB620023FB6207F1F9
:101998000C031946114804F01DFE0346002B14BF22
:1019A80001230023DBB2002B01D000F05DF90023F6
:1019B8007B600023BB603B1D1946084805F008FD05
:1019C8000346002B14BF01230023DBB2002B01D0F8
:1019D80000F04AF900BF3037BD4680BDE401002061
:1019E800000C004080B584B000AF3B4600221A606E
:1019F8005A609A60DA601B4B1B4A1A60194B40F612
:101A08001F525A60174B00229A60164B42F20F720F
:101A1800DA60144B00221A61124B00229A611148B5
:101A280004F0F6FB0346002B14BF01230023DBB2AE
:101A3800002B01D000F018F94FF480533B603B466F
:101A48001946084805F0C4F80346002B14BF0123C3
:101A58000023DBB2002B01D000F006F900BF1037DD
:101A6800BD4680BD2C0200200040014080B500AF7B
:101A7800134B144A1A60124B4FF461425A60104BD0
:101A880000229A600E4B0022DA600D4B00221A6188
:101A98000B4B0C225A610A4B00229A61084B002218
:101AA800DA61074805F076FD0346002B14BF0123D1
:101AB8000023DBB2002B01D000F0D6F800BF80BDB8
:101AC800740200200044004080B582B000AF0023BB
:101AD8007B60104B1B6B0F4A43F4001313630D4BD1
:101AE8001B6B03F400137B607B680022002110202D
:101AF80003F047F9102003F060F9002200211120BB
:101B080003F03FF9112003F058F900BF0837BD462C
:101B180080BD00BF0038024080B58CB000AF07F12F
:101B28001C0300221A605A609A60DA601A61002366
:101B3800BB61494B1B6B484A43F080031363464B18
:101B48001B6B03F08003BB61BB6900237B61424BC5
:101B58001B6B414A43F0010313633F4B1B6B03F0BC
:101B680001037B617B6900233B613B4B1B6B3A4A5A
:101B780043F004031363384B1B6B03F004033B610E
:101B88003B690023FB60344B1B6B334A43F0020371
:101B98001363314B1B6B03F00203FB60FB680023EC
:101BA800BB602D4B1B6B2C4A43F0100313632A4B6D
:101BB8001B6B03F01003BB60BB6800237B60264BE4
:101BC8001B6B254A43F008031363234B1B6B03F07D
:101BD80008037B607B6800222021204803F0A6FED2
:101BE80000224FF207011E4803F0A0FE002244F233
:101BF80004011C4803F09AFE2023FB6101233B6289
:101C080000237B620023BB6207F11C0319461348BB
:101C180003F0F0FC4FF20703FB6101233B62002352
:101C28007B620023BB6207F11C0319460C4803F0D2
:101C3800E1FC44F20403FB6101233B6200237B6265
:101C48000023BB6207F11C031946064803F0D2FCC7
:101C580000BF3037BD4680BD003802400008024052
:101C680000040240000C024080B400AF72B600BF0E
:101C7800FEE700000000000080B582B000AF786089
:101C880039607B68012B17D13B684FF6FF7293428E
:101C980012D10D4B1B681846FEF7FEFB08A3D3E9CB
:101CA8000023FEF751FC02460B4610461946FEF784
:101CB800FBFE0346054A136000BF0837BD4680BDDA
:101CC800282D4454FB21194034000020F80300203B
:101CD80080B500AF4FF6FF710120FFF7CDFF80BD43
:101CE80080B483B000AF78607B6800221A607B689C
:101CF80000225A607B6818460C37BD465DF8047BA5
:101D08007047000080B483B000AF7860044A7B68F5
:101D18001A607B6818460C37BD465DF8047B70472F
:101D28009C91000880B582B000AF78607B68184647
:101D3800FFF7E8FF064A7B681A607B680433184699
:101D4800FFF7CEFF7B6818460837BD4680BD00BF49
:101D58008491000880B485B000AF786039600023B2
:101D6800FB607B685968FB683A681344CAB21A700A
:101D78007B685B68190AFB6801333A681344CAB286
:101D88001A707B685B68190CFB6802333A68134465
:101D9800CAB21A707B685B68190EFB6803333A682D
:101DA8001344CAB21A70FB680433FB607B689968F5
:101DB800FB683A681344CAB21A707B689B68190AB0
:101DC800FB6801333A681344CAB21A707B689B688F
:101DD800190CFB6802333A681344CAB21A707B685C
:101DE8009B68190EFB6803333A681344CAB21A7029
:101DF800FB680433FB60FB6818461437BD465DF882
:101E0800047B704780B485B000AF786039600023E8
:101E1800FB60FB683A6813441B781A467B685A6073
:101E28007B685A68FB68013339680B441B781B02CE
:101E38001A437B685A607B685A68FB6802333968C2
:101E48000B441B781B041A437B685A607B685A68EA
:101E5800FB68033339680B441B781B061A437B68FD
:101E68005A60FB680433FB60FB683A6813441B78CC
:101E78001A467B689A607B689A68FB680133396800
:101E88000B441B781B021A437B689A607B689A682C
:101E9800FB68023339680B441B781B041A437B68C0
:101EA8009A607B689A68FB68033339680B441B782F
:101EB8001B061A437B689A60FB680433FB60FB6867
:101EC80018461437BD465DF8047B704780B483B06C
:101ED80000AF7860034B18460C37BD465DF8047BAD
:101EE800704700BF8C8E000880B483B000AF786064
:101EF800034B18460C37BD465DF8047B704700BF9E
:101F08009C8E000880B582B000AF78607B68184668
:101F1800FFF7F8FE0B4A7B681A607B6800229A80FC
:101F28007B68094A9A607B68074ADA607B68064AD8
:101F38001A617B6800225A617B6818460837BD46DB
:101F480080BD00BF6C910008C08E000880B588B0C5
:101F580000AF786039600023FB617B689988FB6972
:101F68003A681344CAB21A707B689B881B0A99B2F4
:101F7800FB6901333A681344CAB21A70FB69023329
:101F8800FB617B689B681846FEF71AF9B861FB6924
:101F98003A681344B969184601F06CFCFB690433CC
:101FA800FB61FB693A68D0187B689B68BA69194677
:101FB80006F03EFEFA69BB691344FB617B68DB6887
:101FC8001846FEF7FDF87861FB693A6813447969A9
:101FD800184601F04FFCFB690433FB61FB693A6862
:101FE800D0187B68DB687A69194606F021FEFA6921
:101FF8007B691344FB617B681B691846FEF7E0F8B0
:102008003861FB693A6813443969184601F032FCB3
:10201800FB690433FB61FB693A68D0187B681B696C
:102028003A69194606F004FEFA693B691344FB61F4
:102038007B685B69FB60F968FB693A681344CAB25C
:102048001A70FB68190AFB6901333A681344CAB26B
:102058001A70FB68190CFB6902333A681344CAB258
:102068001A70FB68190EFB6903333A681344CAB245
:102078001A70FB690433FB61FB6918462037BD46BB
:1020880080BD80B58AB000AF786039600023BB613D
:10209800BB693A6813441B789AB27B689A807B685C
:1020A8009B881AB2BB69013339680B441B781B0241
:1020B8001BB213431BB29AB27B689A80BB69023386
:1020C800BB61BB693A681A4407F114031146184604
:1020D80001F0EFFBBB690433BB61BB697B620BE0BA
:1020E8003A687B6A1A447B6A013B39680B44127868
:1020F8001A707B6A01337B62BA697B6913447A6A16
:102108009A42EDD3BA697B691344013B3A68134498
:1021180000221A70BB69013B3A681A447B689A60CE
:10212800BA697B691344BB61BB693A681A4407F111
:1021380010031146184601F0BCFBBB690433BB61B0
:10214800BB693B620BE03A683B6A1A443B6A013B55
:1021580039680B4412781A703B6A01333B62BA69DA
:102168003B6913443A6A9A42EDD3BA693B6913440E
:10217800013B3A68134400221A70BB69013B3A6874
:102188001A447B68DA60BA693B691344BB61BB696E
:102198003A681A4407F10C031146184601F089FB06
:1021A800BB690433BB61BB69FB610BE03A68FB693F
:1021B8001A44FB69013B39680B4412781A70FB69B1
:1021C8000133FB61BA69FB681344FA699A42EDD39B
:1021D800BA69FB681344013B3A68134400221A7039
:1021E800BB69013B3A681A447B681A61BA69FB68A3
:1021F8001344BB610023BB60BB68BA6939680A44F1
:1022080012781343BB60BA68BB69013339680B4461
:102218001B781B021343BB60BA68BB690233396879
:102228000B441B781B041343BB60BA68BB690333B8
:1022380039680B441B781B061343BB60BA687B687C
:102248005A61BB690433BB61BB6918462837BD4670
:1022580080BD000080B483B000AF7860034B18469F
:102268000C37BD465DF8047B704700BFC48E00087C
:1022780080B483B000AF7860034B18460C37BD4676
:102288005DF8047B704700BFE08E000880B582B01F
:1022980000AF78607B681846FFF734FD064A7B6814
:1022A8001A607B6800221A717B68044A9A607B680E
:1022B80018460837BD4680BD54910008C08E0008F6
:1022C80080B584B000AF786039600023FB60FB689C
:1022D8003A6813447A6812791A70FB680133FB6014
:1022E8007B689B681846FDF76BFFB860FB683A6827
:1022F8001344B968184601F0BDFAFB680433FB6063
:10230800FB683A68D0187B689B68BA68194606F07B
:102318008FFCFA68BB681344FB60FB6818461037EB
:10232800BD4680BD80B586B000AF786039600023B7
:102338003B613B693A6813441A787B681A713B69B8
:1023480001333B613B693A681A4407F10C031146B3
:10235800184601F0AEFA3B6904333B613B697B6187
:102368000BE03A687B691A447B69013B39680B4486
:1023780012781A707B6901337B613A69FB681344F0
:102388007A699A42EDD33A69FB681344013B3A688B
:10239800134400221A703B69013B3A681A447B686F
:1023A8009A603A69FB6813443B613B6918461837E1
:1023B800BD4680BD80B483B000AF7860034B18463B
:1023C8000C37BD465DF8047B704700BF048F0008DA
:1023D80080B483B000AF7860034B18460C37BD4615
:1023E8005DF8047B704700BF188F000880B582B085
:1023F80000AF78607B681846FFF784FC114A7B6859
:102408001A607B6800225A607B6800229A607B68A9
:102418000022DA607B6800221A617B684FF00002B4
:102428005A617B6800229A617B680022DA617B68C6
:1024380000221A627B6800225A627B6818460837B5
:10244800BD4680BD3C91000880B58AB000AF786079
:10245800396000237B627B6859687B6A3A68134459
:10246800CAB21A707B685B68190A7B6A01333A68DA
:102478001344CAB21A707B685B68190C7B6A023312
:102488003A681344CAB21A707B685B68190E7B6A93
:1024980003333A681344CAB21A707B6A04337B6206
:1024A80000233B622AE07B68DA683B6A9B0013449E
:1024B8001B683B6139697B6A3A681344CAB21A706F
:1024C8003B69190A7B6A01333A681344CAB21A7025
:1024D8003B69190C7B6A02333A681344CAB21A7012
:1024E8003B69190E7B6A03333A681344CAB21A70FF
:1024F8007B6A04337B623B6A01333B627B685B68BF
:102508003A6A9A42CFD37B6819697B6A3A6813445E
:10251800CAB21A707B681B69190A7B6A01333A6868
:102528001344CAB21A707B681B69190C7B6A0233A0
:102538003A681344CAB21A707B681B69190E7B6A21
:1025480003333A681344CAB21A707B6A04337B6255
:102558000023FB612AE07B689A69FB699B001344AE
:102568001B68FB60F9687B6A3A681344CAB21A7040
:10257800FB68190A7B6A01333A681344CAB21A70B5
:10258800FB68190C7B6A02333A681344CAB21A70A2
:10259800FB68190E7B6A03333A681344CAB21A708F
:1025A8007B6A04337B62FB690133FB617B681B69CF
:1025B800FA699A42CFD37B68D9697B6A3A6813442F
:1025C800CAB21A707B68DB69190A7B6A01333A68F8
:1025D8001344CAB21A707B68DB69190C7B6A023330
:1025E8003A681344CAB21A707B68DB69190E7B6AB1
:1025F80003333A681344CAB21A707B6A04337B62A5
:102608000023BB6127E07B685A6ABB699B001344BF
:102618001B681846FDF7D4FD78617B6A3A68134455
:102628007969184601F026F97B6A04337B627B6A74
:102638003A68D0187B685A6ABB699B0013441B68C8
:102648007A69194606F0F4FA7A6A7B6913447B6260
:10265800BB690133BB617B68DB69BA699A42D2D333
:102668007B6A18462837BD4680BD80B58EB000AF5E
:102678007860396000237B637B6B3A6813441B786E
:102688003B627B6B01333A6813441B781B023A6A3E
:1026980013433B627B6B02333A6813441B781B0479
:1026A8003A6A13433B627B6B03333A6813441B78E3
:1026B8001B063A6A13433B627B6B04337B637B687C
:1026C8005B683A6A9A420AD97B68DA683B6A9B0077
:1026D8001946104606F040FA02467B68DA607B68C5
:1026E8003A6A5A6000233B6335E000237B617B69CB
:1026F8007A6B39680A44127813437B617A697B6B79
:10270800013339680B441B781B0213437B617A69D8
:102718007B6B023339680B441B781B0413437B61C2
:102728007A697B6B033339680B441B781B061343A8
:102738007B617A697B689A607B6B04337B637B6817
:10274800DA683B6B9B0013447A68083212681A6097
:102758003B6B01333B637B685B683A6B9A42C4D33B
:102768007B6B3A6813441B78FB617B6B01333A68D7
:1027780013441B781B02FA691343FB617B6B02331A
:102788003A6813441B781B04FA691343FB617B6B9B
:1027980003333A6813441B781B06FA691343FB6139
:1027A8007B6B04337B637B681B69FA699A420AD99D
:1027B8007B689A69FB699B001946104606F0CCF9BC
:1027C80002467B689A617B68FA691A610023FB629A
:1027D80035E000233B613B697A6B39680A4412781B
:1027E80013433B613A697B6B013339680B441B78AF
:1027F8001B0213433B613A697B6B023339680B4414
:102808001B781B0413433B613A697B6B03333968BC
:102818000B441B781B0613433B613A697B685A617A
:102828007B6B04337B637B689A69FB6A9B00134468
:102838007A68143212681A60FB6A0133FB627B689B
:102848001B69FA6A9A42C4D37B6B3A6813441B78B3
:10285800BB617B6B01333A6813441B781B02BA696E
:102868001343BB617B6B02333A6813441B781B0428
:10287800BA691343BB617B6B03333A6813441B7813
:102888001B06BA691343BB617B6B04337B637B68AC
:10289800DB69BA699A420AD97B685A6ABB699B00A4
:1028A8001946104606F058F902467B685A627B685A
:1028B800BA69DA610023BB623EE07B6B3A681A446E
:1028C80007F10C031146184600F0F3FF7B6B043345
:1028D8007B637B6B7B620BE03A687B6A1A447B6A9A
:1028E800013B39680B4412781A707B6A01337B62AA
:1028F8007A6BFB6813447A6A9A42EDD37A6BFB6869
:102908001344013B3A68134400221A707B6B013B65
:102918003A681A447B681A627A6BFB6813447B63D3
:102928007B685A6ABB6A9B0013447A682032126833
:102938001A60BB6A0133BB627B68DB69BA6A9A4278
:10294800BBD37B6B18463837BD4680BD80B483B097
:1029580000AF7860034B18460C37BD465DF8047B22
:10296800704700BF7890000880B483B000AF7860EB
:10297800034B18460C37BD465DF8047B704700BF13
:102988003C8F000880B485B000AFF860B9607A6009
:102998003B60FB68BA681A60FB687A685A60FB6833
:1029A8003A681A61FB6818461437BD465DF8047B1F
:1029B800704780B582B000AF786039607B68D868AE
:1029C8007B68DB681B681B687A6891683A68984777
:1029D800034618460837BD4680BD80B483B000AFB3
:1029E80078607B681B6918460C37BD465DF8047B28
:1029F800704780B483B000AF78607B681B689B6BBE
:102A08001B685B68C3F50073C3F3080318460C37EB
:102A1800BD465DF8047B704780B483B000AF786032
:102A28007B680A4A1A607B680022C3F804227B6824
:102A38000022C3F808247B680022C3F80C247B68B2
:102A480018460C37BD465DF8047B704774020020B9
:102A580080B582B000AF7860786800F004F800BFF5
:102A68000837BD4680BD80B582B000AF78607B680E
:102A780018687B6804334FF40072194604F056FE58
:102A880000BF0837BD4680BD90B585B000AF7860FF
:102A98004FF0FF33FB607B68D3F804427868FFF798
:102AA800A8FF03469C4214BF01230023DBB2002B7E
:102AB80012D07B68D3F80432591C7A68C2F8041221
:102AC8007A6813441B79FB607B68D3F80432C3F33C
:102AD80008027B68C3F80422FB6818461437BD4611
:102AE80090BD000080B584B000AF78607B681B683B
:102AF80093F83D30DBB2202B08D1284B1B7883F0AC
:102B08000103DBB2002B01D0012300E00023002BDE
:102B18003FD0224B01221A707B68D3F808247B68C7
:102B2800D3F80C349A4231D07B68D3F80C247B68F4
:102B3800D3F808349A420AD27B68D3F808349AB298
:102B48007B68D3F80C349BB2D31A9BB206E07B683F
:102B5800D3F80C349BB2C3F500739BB2FB817B683E
:102B680018687B68D3F80C3403F502737A68134449
:102B7800FA89194604F05CFD7B68D3F80C24FB89BC
:102B88001344C3F308027B68C3F80C24034B0022E8
:102B98001A7000BF1037BD4680BD00BFFD0300207E
:102BA80080B586B000AFF860B9607A607B687B61F9
:102BB8007B69B3F5007FA8BF4FF400737B61FB68A6
:102BC800D3F80834C3F500727B69934228BF1346D3
:102BD8003B61FB68D3F8083403F50273FA681344C1
:102BE8003A69B968184606F023F8FB68D3F8082450
:102BF8007B691344C3F30802FB68C3F808247A69A5
:102C08003B699A420BD0FB6803F502703B69BA68CE
:102C1800D1187A693B69D31A1A4606F009F8F86898
:102C2800FFF760FF00BF1837BD4680BD80B582B092
:102C380000AF786001F09AFF034618460837BD4692
:102C480080BD000080B582B000AF78607B68184610
:102C5800FFF758F8084A7B681A607B68074A5A6089
:102C68007B6800229A607B680022DA607B681846DD
:102C78000837BD4680BD00BFF8900008C08E000828
:102C880080B584B000AF786039600023FB607B6852
:102C98005B681846FDF794FAB860FB683A68134415
:102CA800B968184600F0E6FDFB680433FB60FB6872
:102CB8003A68D0187B685B68BA68194605F0B8FFAF
:102CC800FA68BB681344FB607B689968FB683A68DC
:102CD8001344CAB21A707B689B68190AFB680133EF
:102CE8003A681344CAB21A707B689B68190CFB686F
:102CF80002333A681344CAB21A707B689B68190E8B
:102D0800FB6803333A681344CAB21A70FB68043389
:102D1800FB607B68D968FB683A681344CAB21A70CA
:102D28007B68DB68190AFB6801333A681344CAB246
:102D38001A707B68DB68190CFB6802333A68134425
:102D4800CAB21A707B68DB68190EFB6803333A68ED
:102D58001344CAB21A70FB680433FB60FB68184658
:102D68001037BD4680BD80B586B000AF7860396049
:102D780000233B613B693A681A4407F10C0311468A
:102D8800184600F096FD3B6904333B613B697B6163
:102D98000BE03A687B691A447B69013B39680B444C
:102DA80012781A707B6901337B613A69FB681344B6
:102DB8007A699A42EDD33A69FB681344013B3A6851
:102DC800134400221A703B69013B3A681A447B6835
:102DD8005A603A69FB6813443B613B693A6813449B
:102DE8001B781A467B689A607B689A683B6901334E
:102DF80039680B441B781B021A437B689A607B680E
:102E08009A683B69023339680B441B781B041A43E0
:102E18007B689A607B689A683B69033339680B441E
:102E28001B781B061A437B689A603B6904333B6135
:102E38003B693A6813441B781A467B68DA607B68FA
:102E4800DA683B69013339680B441B781B021A4363
:102E58007B68DA607B68DA683B69023339680B445F
:102E68001B781B041A437B68DA607B68DA683B6965
:102E7800033339680B441B781B061A437B68DA60F6
:102E88003B6904333B613B6918461837BD4680BD32
:102E980080B483B000AF7860034B18460C37BD464A
:102EA8005DF8047B704700BF608F000880B483B072
:102EB80000AF7860034B18460C37BD465DF8047BBD
:102EC800704700BF808F000880B582B000AF78607F
:102ED8007B681846FEF716FF0A4A7B681A607B680B
:102EE80000225A607B6808331846FFF7ABFE7B6800
:102EF80000229A617B680022DA617B6818460837ED
:102F0800BD4680BDE090000880B584B000AF786011
:102F180039600023FB607B685968FB683A68134492
:102F2800CAB21A707B685B68190AFB6801333A6891
:102F38001344CAB21A707B685B68190CFB680233C9
:102F48003A681344CAB21A707B685B68190EFB684A
:102F580003333A681344CAB21A70FB680433FB603F
:102F68000023BB6017E07B689A69BB681B01D01817
:102F78007B689A69BB681B0113441B681B68FA6865
:102F880039680A44114698470246FB681344FB60B7
:102F9800BB680133BB607B685B68BA689A42E2D35E
:102FA8007B68D969FB683A681344CAB21A707B68AF
:102FB800DB69190AFB6801333A681344CAB21A700C
:102FC8007B68DB69190CFB6802333A681344CAB2A0
:102FD8001A707B68DB69190EFB6803333A6813447F
:102FE800CAB21A70FB680433FB60FB6818461037D6
:102FF800BD4680BD80B586B000AF786039600023DB
:103008007B617B693A6813441B78FB607B690133F9
:103018003A6813441B781B02FA681343FB607B6908
:1030280002333A6813441B781B04FA681343FB60A5
:103038007B6903333A6813441B781B06FA68134309
:10304800FB607B6904337B617B685B68FA689A4242
:103058000AD97B689A69FB681B011946104605F076
:103068007BFD02467B689A617B68FA685A60002398
:103078003B611AE07B6803F108007B693A681344F6
:103088001946FFF770FE02467B6913447B617B6833
:103098009A693B691B01D0187B68083310221946CE
:1030A80005F0C6FD3B6901333B617B685B683A69A3
:1030B8009A42DFD37B693A6813441B781A467B68C7
:1030C800DA617B68DA697B69013339680B441B78FC
:1030D8001B021A437B68DA617B68DA697B69023311
:1030E80039680B441B781B041A437B68DA617B68D8
:1030F800DA697B69033339680B441B781B061A436A
:103108007B68DA617B6904337B617B691846183711
:10311800BD4680BD80B483B000AF7860034B1846CD
:103128000C37BD465DF8047B704700BFA48F0008CC
:1031380080B483B000AF7860034B18460C37BD46A7
:103148005DF8047B704700BFC08F000880B582B06F
:1031580000AF78607B681846FEF7D4FD0B4A7B68A1
:103168001A607B6804331846FFF7AEFE7B680022BE
:103178005A627B684FF000029A627B680022DA622A
:103188007B6818460837BD4680BD00BFC890000858
:1031980080B586B000AF7860396000237B617B68BA
:1031A800181D7B693A6813441946FFF7ADFE0246BD
:1031B8007B6913447B617B68596A7B693A6813446D
:1031C800CAB21A707B685B6A190A7B6901333A686C
:1031D8001344CAB21A707B685B6A190C7B690233A4
:1031E8003A681344CAB21A707B685B6A190E7B6925
:1031F80003333A681344CAB21A707B6904337B619B
:1032080000233B612AE07B68DA6A3B699B00134430
:103218001B68FB60F9687B693A681344CAB21A7084
:10322800FB68190A7B6901333A681344CAB21A70F9
:10323800FB68190C7B6902333A681344CAB21A70E6
:10324800FB68190E7B6903333A681344CAB21A70D3
:103258007B6904337B613B6901333B617B685B6A53
:103268003A699A42CFD37B6918461837BD4680BD64
:1032780080B586B000AF7860396000237B617B68D9
:10328800181D7B693A6813441946FFF7B3FE0246D6
:103298007B6913447B617B693A6813441B78FB6044
:1032A8007B6901333A6813441B781B02FA6813439D
:1032B800FB607B6902333A6813441B781B04FA6885
:1032C8001343FB607B6903333A6813441B781B067E
:1032D800FA681343FB607B6904337B617B685B6A34
:1032E800FA689A420AD97B68DA6AFB689B00194631
:1032F800104605F031FC02467B68DA627B68FA68A2
:103308005A6200233B6135E00023BB60BB687A69E1
:1033180039680A4412781343BB60BA687B69013381
:1033280039680B441B781B021343BB60BA687B697E
:10333800023339680B441B781B041343BB60BA681B
:103348007B69033339680B441B781B061343BB6046
:10335800BA687B689A627B6904337B617B68DA6A46
:103368003B699B0013447A68283212681A603B69EB
:1033780001333B617B685B6A3A699A42C4D37B69D3
:1033880018461837BD4680BD80B483B000AF78605A
:10339800034B18460C37BD465DF8047B704700BFE9
:1033A800E48F000880B483B000AF7860034B184600
:1033B8000C37BD465DF8047B704700BF00900008DD
:1033C80080B483B000AF7860044A7B681A607B6879
:1033D80018460C37BD465DF8047B704728910008F5
:1033E80080B582B000AF78607B681846FFF7E8FFC9
:1033F800364A7B681A607B6804331846FFF70CFB73
:103408007B680022C3F814247B680022C3F81824C0
:103418007B680022C3F81C247B680022C3F82024A0
:103428007B6803F224434FF400720021184605F02C
:10343800CAFB7B6803F224634FF40072002118462C
:1034480005F0C1FB7B6803F62403642200211846BB
:1034580005F0B9FB7B6803F688036422002118464F
:1034680005F0B1FB7B680022C3F8EC287B680022DA
:10347800C3F8F0287B680022C3F8F4287B68002290
:10348800C3F8F8287B680022C3F8FC287B68002270
:1034980083F800297B680022C3F804297B6800228E
:1034A800C3F808297B680022C3F80C297B6800222E
:1034B80083F810297B6803F614131846FEF796FF65
:1034C8007B6818460837BD4680BD00BFB490000829
:1034D80080B582B000AF7860054800F045FA034631
:1034E8001846FFF7FFFA00BF0837BD4680BD00BF8A
:1034F8000004002080B582B000AF7860054800F075
:1035080033FA03461846FFF7AEFA00BF0837BD4640
:1035180080BD00BF0004002080B500AF084800F05F
:103528002FFA0849064800F048FA0749044800F00D
:1035380044FA0649024800F070FA00BF80BD00BF97
:1035480000040020CC0D0020E00D0020F40D002028
:1035580080B500AF0E4B04225A620D4B0D4ADA6259
:103568000D4B04225A620C4B0C4ADA6208490C488B
:10357800FFF71FFA08490B48FFF71BFA0A4800F043
:1035880077FA4FF47A7001F0FDFA00BF80BD00BFF2
:103598003C0D0020000000206C0D00207803002066
:1035A800CC0D0020E00D002000040020B0B582B052
:1035B80000AF78607B685B6A022B40F24E817B68C3
:1035C800DB6A93ED007A7B68DB6A0433D3ED007A1B
:1035D80077EE277A17EE900AFCF75EFF04460D4651
:1035E800022000F01EFC53EC102B20462946FDF764
:1035F800D5F802460B4614461D467B68DB6A08333D
:1036080093ED007A974BD3ED007A67EE277A17EEA1
:10361800900AFCF741FF02460B4620462946FCF774
:10362800DBFD02460B46104619464FF000028E4B52
:10363800FCF78AFF02460B4614461D468B4B1B6857
:103648001846FCF729FF02460B4620462946FDF797
:10365800A5F802460B4610461946FDF725FA03461B
:10366800834A13607B68DB6A93ED007A7B68DB6AC8
:103678000433D3ED007A77EE677A17EE900AFCF7F9
:103688000BFF04460D46022000F0CBFB53EC102B39
:1036980020462946FDF782F802460B4614461D4689
:1036A8007B68DB6A083393ED007A6E4BD3ED007AC2
:1036B80067EE277A17EE900AFCF7EEFE02460B46F5
:1036C80020462946FCF788FD02460B461046194657
:1036D8004FF00002644BFCF737FF02460B461446D6
:1036E8001D46624B1B681846FCF7D6FE02460B4681
:1036F80020462946FDF752F802460B461046194661
:10370800FDF7D2F903465A4A53607B68DB6AD3ED6A
:10371800007AB1EE677A7B68DB6A0433D3ED007A0E
:1037280077EE677A17EE900AFCF7B6FE04460D4668
:10373800022000F076FB53EC102B20462946FDF7BB
:103748002DF802460B4614461D467B68DB6A083393
:1037580093ED007A434BD3ED007A67EE277A17EEA4
:10376800900AFCF799FE02460B4620462946FCF7CC
:1037780033FD02460B46104619464FF000023A4BFD
:10378800FCF7E2FE02460B4614461D46374B1B6803
:103798001846FCF781FE02460B4620462946FCF7F0
:1037A800FDFF02460B4610461946FDF77DF9034614
:1037B8002F4A93607B68DB6A043393ED007A7B6859
:1037C800DB6AD3ED007A77EE677A17EE900AFCF79A
:1037D80063FE04460D46022000F023FB53EC102B39
:1037E80020462946FCF7DAFF02460B4614461D46DA
:1037F8007B68DB6A083393ED007A1A4BD3ED007AC5
:1038080067EE277A17EE900AFCF746FE02460B464B
:1038180020462946FCF7E0FC02460B4610461946AE
:103828004FF00002104BFCF78FFE02460B46144681
:103838001D460E4B1B681846FCF72EFE02460B462B
:1038480020462946FCF7AAFF02460B4610461946B1
:10385800FDF72AF90346064AD36000BF0837BD467C
:10386800B0BD00BF3800002000004E40F803002023
:103878000000002080B485B000AF78603960002374
:10388800FB600CE0FB68DB003A6822FA03F17A6817
:10389800FB681344CAB21A70FB680133FB60FB680B
:1038A800032BEFD900BF00BF1437BD465DF8047B7A
:1038B800704780B485B000AF786039607B680022BB
:1038C8001A600023FB6010E07B681B683968FA689F
:1038D8000A4412781146FA68D20001FA02F21A4331
:1038E8007B681A60FB680133FB60FB68032BEBD92C
:1038F80000BF00BF1437BD465DF8047B7047000069
:1039080080B483B000AF7860044A7B681A607B6833
:1039180018460C37BD465DF8047B704710910008C7
:1039280080B584B000AFF860B9607A603B60FB682E
:103938001846FFF7E5FF0B4AFB681A60FB680C3373
:103948001846FFF703FCFB687A68DA63FB683A6895
:103958001A64FB68BA689A60FB6818461037BD4657
:1039680080BD00BF9C90000880B483B000AF786031
:103978007B68043318460C37BD465DF8047B7047F6
:1039880080B582B000AF78607B6804331846FFF7D3
:103998005FF87B680022C3F8EC287B680022C3F834
:1039A800F0287B680022C3F8F8287B680022C3F857
:1039B800F42800BF0837BD4680BD80B485B000AF8D
:1039C800786039600023FB601DE07A68FB6803F5C6
:1039D80002739B0013445B68002B11D17A68FB6863
:1039E80003F502739B0013443A685A60FB6803F1BD
:1039F8007D023B689A607A683B68DA60012306E0DA
:103A0800FB680133FB60FB68182BDEDD00231846DA
:103A18001437BD465DF8047B704780B485B000AFAD
:103A2800786039600023FB6018E07B68FA6802F26E
:103A3800222253F82230002B0DD17B68FA6802F25B
:103A48002222396843F82210FB6803F164023B68BC
:103A58005A60012306E0FB680133FB60FB68182B02
:103A6800E3DD002318461437BD465DF8047B704734
:103A780080B584B000AF78607B6804331846FFF7E0
:103A8800D5F8F8607B68D3F80839FA68D31A42F693
:103A9800F822934203D97B68002283F800297B68C7
:103AA800D3F8EC38002B09D07B68D3F80C39FA68C6
:103AB8009A4203D97B680022C3F8EC287B68D3F8C4
:103AC8002034002B14D07B6804331846FFF7AEF877
:103AD8000246FB68D21A7B68D3F820349A428CBF1E
:103AE80001230023DBB2002B02D06FF0010394E125
:103AF8007B6804331846FEF7C7FFB860BB68002B25
:103B0800C0F274817B68D3F8FC28BB681A447B68D0
:103B1800C3F8FC287B68D3F8EC38072B1ED17B68E8
:103B2800D3F8F838591C7A68C2F8F818BA68D1B2CC
:103B38007A6813440A4683F824247B68D3F8F0385B
:103B48005A1E7B68C3F8F0287B68D3F8F038002B3E
:103B5800B4D17B680822C3F8EC28AFE77B68D3F8B8
:103B6800EC38002B28D1BB68FF2B0DD17B68D3F82C
:103B7800EC385A1C7B68C3F8EC28FB6803F1140284
:103B88007B68C3F80C2999E77B6804331846FFF76C
:103B98004DF80246FB68D31A41F2883293428CBF33
:103BA80001230023DBB2002B88D07B68002283F836
:103BB80000296FF0010330E17B68D3F8EC38012B62
:103BC80018D1BB68FE2B07D17B68D3F8EC385A1C98
:103BD8007B68C3F8EC2871E77B680022C3F8EC28FF
:103BE8007B6893F80039002B7FF468AF786800F0A1
:103BF80030F963E77B68D3F8EC38022B13D17B6884
:103C0800BA68C3F8F0287B680022C3F8F8287B68F4
:103C1800D3F8EC385A1C7B68C3F8EC287B68BA6880
:103C2800C3F8FC284AE77B68D3F8EC38032B10D19B
:103C38007B68D3F8F028BB681B021A447B68C3F87A
:103C4800F0287B68D3F8EC385A1C7B68C3F8EC285A
:103C580034E77B68D3F8EC38042B16D17B68D3F8AB
:103C6800FC385A42DBB2D2B258BF5342FF2B07D1BD
:103C78007B68D3F8EC385A1C7B68C3F8EC281DE73E
:103C88007B680022C3F8EC2818E77B68D3F8EC3887
:103C9800052B0FD17B68BA68C3F8F4287B68D3F882
:103CA800EC385A1C7B68C3F8EC287B68BA68C3F800
:103CB800FC2803E77B68D3F8EC38062B17D17B6820
:103CC800D3F8F428BB681B021A447B68C3F8F428AD
:103CD8007B680722C3F8EC287B68D3F8F038002B00
:103CE8007FF4ECAE7B680822C3F8EC28E6E67B6834
:103CF800D3F8EC38082B7FF4E1AE7B680022C3F8D8
:103D0800EC287B68D3F8FC385A42DBB2D2B258BFF1
:103D18005342FF2B7FF4D2AE7B68D3F8F438002BE4
:103D280010D1786800F095F8786800F0B0F87B68F2
:103D3800FA68C3F804297B68FA68C3F808294FF0C1
:103D4800FF336AE07B68D3F8F4380A2B07D17B6825
:103D580003F224431946786800F078F9AEE67B68E8
:103D6800D3F8F438062B0ED17B6803F614127B685F
:103D780003F2244319461046FEF777FC7B680122BC
:103D880083F810299AE67B68D3F8F4380B2B04D112
:103D98007B68002283F8002990E67B68D3F8F43822
:103DA800A3F164027B6802F2222253F82230002B2E
:103DB8003FF484AE7B68D3F8F438A3F164027B68DF
:103DC80002F2222253F822007B68D3F8F438A3F1D8
:103DD80064027B6802F2222253F822301B681B68B7
:103DE8007A6802F224421146984767E600BF7B686A
:103DF80093F80039002B0FD07B68D3F80439FA68A0
:103E0800D31A40F6C412934206D9786800F021F814
:103E18007B68FA68C3F80429002318461037BD46A2
:103E280080BD80B582B000AF78607868FCF722FB6F
:103E380002460B4643EC102B04F088FDB0EE407AA6
:103E4800F0EE607AB0EE470AF0EE670A0837BD4632
:103E580080BD80B586B000AF786007F10C031846C6
:103E6800FDF760FF7B681B681B6807F10C020A21DD
:103E7800786898477B6804331846FEF7D7FE0246F1
:103E88007B68C3F8142400BF1837BD4680BD90B5C1
:103E98008BB000AF786007F10C031846FEF732F8D4
:103EA80000237B6262E07A687B6A03F502739B00F9
:103EB80013445B68002B56D07A687B6A03F502735B
:103EC8009B0013445B689B689BB23B827A687B6A61
:103ED80003F502739B0013445B681B687B617A6877
:103EE8007B6A03F502739B0013445B6859687A6820
:103EF8007B6A03F502739B0013445B685B681B686D
:103F080008331B68084698470346BB617A687B6A92
:103F180003F502739B0013445B6859687A687B6AEF
:103F280003F502739B0013445B685B681B680C33E2
:103F38001B68084698470346FB614FF400733B62D1
:103F48007B681B681C687A687B6A03F502739B00B0
:103F580013445B681846FEF740FD014607F10C0361
:103F68001A467868A0477B6A01337B627B6A182B04
:103F780099DD00237B625EE07B687A6A02F2222286
:103F880053F82230002B53D07B687A6A02F222223F
:103F980053F822305B689BB23B827B687A6A02F2F4
:103FA800222253F822309B687B617B687A6A02F28E
:103FB800222253F822107B687A6A02F2222253F8EE
:103FC80022301B6808331B68084698470346BB61C4
:103FD8007B687A6A02F2222253F822107B687A6A96
:103FE80002F2222253F822301B680C331B68084661
:103FF80098470346FB614FF400733B627B681B687C
:104008001C687B687A6A02F2222253F822107B68C5
:104018007A6A02F2222253F822301B6804331B68A2
:1040280008469847014607F10C031A467868A047E6
:104038007B6A01337B627B6A182B9DDD7B680122DA
:1040480083F8002900BF2C37BD4690BD80B586B0E7
:1040580000AF7860396007F108031846FDF762FE83
:104068007B6804331846FEF7E1FD02467B68D3F807
:104078001434D31A7B6107F1080339681846FDF731
:10408800C1FEFA687B691549A1FB03139B09134418
:10409800FB6039697A69114BA3FB02039B094FF452
:1040A8007A7000FB03F3D31A0D4A02FB03F30B44A7
:1040B8003B6107F1080304331946786800F0A6F855
:1040C8007B6804331846FEF7B1FD02467B68C3F8E7
:1040D800082900BF1837BD4680BD00BFD34D621008
:1040E80040420F0080B588B000AFF860B9607A60D0
:1040F800BB68632B09DDFB6893F8003983F0010383
:10410800DBB2002B01D0002379E07B681B681B68B9
:10411800FA6802F224620732114678689847786193
:10412800FB68FF2283F82426FB68FE2283F82526F5
:104138007B69DAB2FB6883F826267B699BB21B0A87
:104148009BB2DAB2FB6883F82726FB6893F8262629
:10415800FB6893F827361344DBB2DB43DAB2FB681B
:1041680083F82826BB68DAB2FB6883F82926BB687F
:104178001BB21B121BB2DAB2FB6883F82A26002393
:10418800FB610523BB610CE0FA68BB69134403F2C9
:1041980024631B781A46FB691344FB61BB6901332E
:1041A800BB617B690633BA699A42EDDD7B690733E7
:1041B8007B61FB695A42DBB2D2B258BF5342DAB2D2
:1041C8007B69591C7961D243D1B2FA6813440A4613
:1041D80083F824267B69B3F5007F0ADCFB68181D89
:1041E800FB6803F224637A691946FEF7D9FC7B69F8
:1041F80005E00549F86800F049F84FF0FF33184624
:104208002037BD4680BD00BF2490000880B584B02B
:1042180000AF786039607B6804331846FEF706FD06
:10422800F8603B681A68FB681549A1FB03139B09F2
:10423800D31A5A1E7B68C3F818243B685968FA6871
:104248000F4BA3FB02039B094FF47A7000FB03F3A7
:10425800D31A0C4A02FB03F3CA1A0B4B13447A68AD
:10426800C2F81C347B6803F583627B6803F21C4345
:1042780019461046FCF7E6FD00BF1037BD4680BD65
:10428800D34D621040420F0000CA9A3B80B582B0FD
:1042980000AF786039603A680321786800F004F864
:1042A80000BF0837BD4680BD80B588B000AFF86054
:1042B8000B467A60FB7207F114031846FDF7E6FF18
:1042C800FB7A3B767B68FB61FB681B681B6807F120
:1042D80014020721F868984700BF2037BD4680BD03
:1042E80080B582B000AF786039607B68012B22D13D
:1042F8003B684FF6FF7293421DD11148FFF770F8E3
:104308001048FEF723FF1048FEF720FF0F48FEF77E
:104318001DFF00230B4A0E490E48FEF733FB00230E
:10432800094A0D490D48FEF72DFB01230C4A0D499A
:104338000D48FFF7F5FA00BF0837BD4680BD00BF3E
:10434800000400203C0D00206C0D00209C0D002076
:1043580060900008CC0D002068900008E00D002057
:10436800B535000870900008F40D002080B582B0C3
:1043780000AF786039607B680C3339681846FEF7FF
:1043880077FF7B68DB6B7A680C321046984700BF72
:104398000837BD4680BD80B483B000AF78607B68C5
:1043A8001B6C18460C37BD465DF8047B704780B51A
:1043B80082B000AF78607B680C331846FEF7E4FFE4
:1043C800034618460837BD4680BD80B582B000AFA9
:1043D80078607B680C331846FEF7E4FF03461846FE
:1043E8000837BD4680BD80B483B000AF78607B6875
:1043F80093F8003918460C37BD465DF8047B7047C2
:1044080080B500AF4FF6FF710120FFF769FF80BD4F
:1044180080B483B000AF00237B60104B5B6C0F4A05
:1044280043F4804353640D4B5B6C03F480437B601F
:104438007B6800233B60094B1B6C084A43F08053A0
:104448001364064B1B6C03F080533B603B6800BF52
:104458000C37BD465DF8047B704700BF003802404A
:1044680080B584B000AF78607B681B681C4A9342B3
:1044780016D10023FB601B4B5B6C1A4A43F0010307
:104488005364184B5B6C03F00103FB60FB6800226C
:104498000021182000F075FC182000F08EFC1AE0AE
:1044A8007B681B68104A934215D10023BB600D4BF3
:1044B8005B6C0C4A43F4803353640A4B5B6C03F423
:1044C8008033BB60BB6800220021182000F059FC33
:1044D800182000F072FC00BF1037BD4680BD00BF39
:1044E80000000140003802400040014080B592B011
:1044F80000AF786007F1340300221A605A609A60AE
:10450800DA601A617B681B68B3F1804F4AD10023D7
:104518003B63804B1B6C7F4A43F0010313647D4B64
:104528001B6C03F001033B633B6B0023FB62794B7D
:104538001B6B784A43F001031363764B1B6B03F044
:104548000103FB62FB6A0023BB62724B1B6B714A5F
:1045580043F0020313636F4B1B6B03F00203BB6250
:10456800BB6A20237B630223BB630123FB63002315
:104578003B6401237B6407F134031946664801F064
:1045880039F808237B630223BB630123FB63002301
:104598003B6401237B6407F1340319465F4801F04B
:1045A80029F8B3E07B681B685D4A93422CD100234D
:1045B8007B62584B1B6C574A43F002031364554BFC
:1045C8001B6C03F002037B627B6A00233B62514B46
:1045D8001B6B504A43F0010313634E4B1B6B03F0F4
:1045E80001033B623B6AC0237B630223BB63012355
:1045F800FB6300233B6402237B6407F13403194601
:10460800454800F0F7FF81E07B681B68454A934204
:104618004BD10023FB613F4B1B6C3E4A43F0040324
:1046280013643C4B1B6C03F00403FB61FB69002320
:10463800BB61384B1B6B374A43F008031363354B98
:104648001B6B03F00803BB61BB6900237B61314B23
:104658001B6B304A43F0020313632E4B1B6B03F0B2
:1046680002037B617B694FF480537B630223BB6346
:104678000123FB6300233B6402237B6407F13403BB
:104688001946294800F0B6FF80237B630223BB63E9
:104698000123FB6300233B6402237B6407F134039B
:1046A80019461E4800F0A6FF30E07B681B681F4AC9
:1046B80093422BD100233B61164B1B6C154A43F0E8
:1046C80008031364134B1B6C03F008033B613B693D
:1046D8000023FB600F4B1B6B0E4A43F0010313636F
:1046E8000C4B1B6B03F00103FB60FB6803237B632C
:1046F8000223BB630123FB6300233B6402237B6427
:1047080007F134031946044800F074FF00BF483726
:10471800BD4680BD0038024000000240000402404F
:104728000004004000080040000C0240000C00405B
:1047380080B588B000AF786007F10C0300221A60DA
:104748005A609A60DA601A617B681B68124A934261
:104758001ED10023BB60114B1B6B104A43F01003A2
:1047680013630E4B1B6B03F01003BB60BB684FF465
:10477800D443FB6002233B6100237B610023BB61C0
:104788000123FB6107F10C031946054800F032FFCD
:1047980000BF2037BD4680BD000001400038024000
:1047A8000010024080B58AB000AF786007F11403AA
:1047B80000221A605A609A60DA601A617B681B6886
:1047C8004C4A934240F0918000233B614A4B1B6C5A
:1047D800494A43F400331364474B1B6C03F400331A
:1047E8003B613B690023FB60434B1B6B424A43F030
:1047F80001031363404B1B6B03F00103FB60FB6871
:104808000C237B610223BB610023FB6103233B6212
:1048180007237B6207F114031946384800F0EAFEC3
:10482800374B384A1A60364B4FF000625A60344BA7
:1048380000229A60324B0022DA60314B4FF48062DA
:104848001A612F4B00225A612D4B00229A612C4B82
:104858004FF48072DA612A4B00221A62284B002238
:104868005A62274800F0C4FA0346002B01D0FDF72E
:10487800FBF97B68224A9A63214A7B689363224B3F
:10488800224A1A60204B4FF000625A601E4B4022A9
:104898009A601D4B0022DA601B4B4FF480621A614C
:1048A800194B00225A61184B00229A61164B0022BC
:1048B800DA61154B00221A62134B00225A62124821
:1048C80000F096FA0346002B01D0FDF7CDF97B687E
:1048D8000D4A5A630C4A7B68936300220021262004
:1048E80000F04FFA262000F068FA00BF2837BD46CE
:1048F80080BD00BF00440040003802400000024074
:10490800B80200208860024018030020A06002401E
:1049180080B400AFFEE780B400AFFEE780B400AF1C
:10492800FEE780B400AFFEE780B400AFFEE780B4D6
:1049380000AF00BFBD465DF8047B704780B400AF90
:1049480000BFBD465DF8047B704780B400AF00BF70
:10495800BD465DF8047B704780B500AF00F0F2F803
:1049680000BF80BD80B500AF024800F0D9FB00BF92
:1049780080BD00BFB802002080B500AF024800F03B
:10498800CFFB00BF80BD00BF1803002080B500AF7B
:10499800034801F053FF034801F050FF00BF80BDFA
:1049A800C40000202C02002080B500AF024802F0AD
:1049B800EDFE00BF80BD00BF7402002080B586B048
:1049C80000AF7860144A154BD31A7B617B693B6151
:1049D800134B1B68002B02D1114B124A1A60104B63
:1049E8001A687B6813443A699A4207D204F0F4F8CB
:1049F80003460C221A604FF0FF3309E0084B1B688E
:104A0800FB60074B1A687B681344054A1360FB6810
:104A180018461837BD4680BD00000220000400007B
:104A2800380E0020880F002080B400AF064BD3F862
:104A38008830054A43F47003C2F8883000BFBD4689
:104A48005DF8047B704700BF00ED00E0DFF834D06C
:104A58000D480E490E4A002302E0D458C4500433CE
:104A6800C4188C42F9D30B4A0B4C002301E01360A5
:104A78000432A242FBD3FFF7D7FF04F0B3F8FCF7E8
:104A880075FC70470000022000000020A8000020EC
:104A9800E4910008A8000020880F0020FEE700002D
:104AA80080B500AF0E4B1B680D4A43F400731360CA
:104AB8000B4B1B680A4A43F480631360084B1B685E
:104AC800074A43F480731360032000F04FF90F2066
:104AD80000F008F8FFF79CFC0023184680BD00BFD3
:104AE800003C024080B582B000AF7860124B1A6873
:104AF800124B1B7819464FF47A73B3FBF1F3B2FBF0
:104B0800F3F3184600F067F90346002B01D00123A0
:104B18000EE07B680F2B0AD8002279684FF0FF302F
:104B280000F02FF9064A7B681360002300E0012398
:104B380018460837BD4680BD3C00002044000020D0
:104B48004000002080B400AF064B1B781A46064B85
:104B58001B681344044A136000BFBD465DF8047B1C
:104B6800704700BF440000203C0E002080B400AF16
:104B7800034B1B681846BD465DF8047B704700BFB1
:104B88003C0E002080B584B000AF7860FFF7EEFFE0
:104B9800B8607B68FB60FB68B3F1FF3F05D00A4B48
:104BA8001B781A46FB681344FB6000BFFFF7DEFF63
:104BB8000246BB68D31AFA689A42F7D800BF00BF0A
:104BC8001037BD4680BD00BF4400002080B485B0CA
:104BD80000AF78607B6803F00703FB600C4BDB6871
:104BE800BB60BA684FF6FF031340BB60FB681A024C
:104BF800BB68134343F0BF6343F40033BB60044A0C
:104C0800BB68D36000BF1437BD465DF8047B7047AE
:104C180000ED00E080B400AF044BDB681B0A03F032
:104C280007031846BD465DF8047B704700ED00E0B9
:104C380080B483B000AF0346FB7197F90730002BAF
:104C48000BDBFB7903F01F02074997F907305B0973
:104C5800012000FA02F241F8232000BF0C37BD46BC
:104C68005DF8047B704700BF00E100E080B483B0CA
:104C780000AF03463960FB7197F90730002B0ADB58
:104C88003B68DAB20C4997F907301201D2B20B44EB
:104C980083F800230AE03B68DAB20849FB7903F09D
:104CA8000F03043B1201D2B20B441A7600BF0C3733
:104CB800BD465DF8047B704700E100E000ED00E0D0
:104CC80080B489B000AFF860B9607A60FB6803F01F
:104CD8000703FB61FB69C3F10703042B28BF042307
:104CE800BB61FB690433062B02D9FB69033B00E077
:104CF80000237B614FF0FF32BB6902FA03F3DA430A
:104D0800BB681A407B699A404FF0FF317B6901FA12
:104D180003F3D9437B680B40134318462437BD4639
:104D28005DF8047B7047000080B582B000AF786002
:104D38007B68013BB3F1807F01D301230FE00A4A6E
:104D48007B68013B53600F214FF0FF30FFF78EFF68
:104D5800054B00229A60044B07221A60002318466C
:104D68000837BD4680BD00BF10E000E080B582B0C6
:104D780000AF78607868FFF729FF00BF0837BD46A5
:104D880080BD80B586B000AF0346B9607A60FB731A
:104D980000237B61FFF73EFF78617A68B96878691C
:104DA800FFF78EFF024697F90F3011461846FFF7B6
:104DB8005DFF00BF1837BD4680BD80B582B000AF2B
:104DC8000346FB7197F907301846FFF731FF00BF1C
:104DD8000837BD4680BD80B582B000AF786078687E
:104DE800FFF7A2FF034618460837BD4680BD0000FE
:104DF80080B586B000AF786000237B61FFF7B6FE10
:104E080038617B68002B01D1012399E07B6802227D
:104E180083F835207B68002283F834207B681B6880
:104E28001A687B681B6822F001021A600FE0FFF71E
:104E38009DFE02463B69D31A052B08D97B682022C0
:104E48005A657B68032283F83520032378E07B6862
:104E58001B681B6803F00103002BE8D17B681B6803
:104E68001B687B617A69384B13407B617B685A68A1
:104E78007B689B681A437B68DB681A437B681B69FD
:104E88001A437B685B691A437B689B691A437B6892
:104E9800DB691A437B681B6A13437A6913437B6196
:104EA8007B685B6A042B07D17B68DA6A7B681B6BBB
:104EB80013437A6913437B617B681B687A691A60BC
:104EC8007B681B685B697B617B6923F007037B61F7
:104ED8007B685B6A7A6913437B617B685B6A042B36
:104EE80017D17B689B6A7A6913437B617B68DB6AAD
:104EF800002B0ED0786800F001FB0346002B08D089
:104F08007B6840225A657B68012283F8352001239B
:104F180016E07B681B687A695A61786800F0B8FA0D
:104F28000346FB607B68DB6D3F229A40FB689A6012
:104F38007B6800225A657B68012283F835200023AC
:104F480018461837BD4680BD3F8010F080B586B042
:104F580000AFF860B9607A603B600023FB75FB68BE
:104F68009B6D3B61FB6893F83430012B01D1022320
:104F780040E0FB68012283F83420FB6893F8353061
:104F8800DBB2012B2FD1FB68022283F83520FB68A6
:104F980000225A653B687A68B968F86800F04AFAEE
:104FA800FB68DB6D3F229A403B699A60FB681B688F
:104FB8001A68FB681B6842F016021A60FB681B6CD3
:104FC800002B07D0FB681B681A68FB681B6842F057
:104FD80008021A60FB681B681A68FB681B6842F0C5
:104FE80001021A6005E0FB68002283F834200223DE
:104FF800FB75FB7D18461837BD4680BD80B584B06B
:1050080000AF78607B689B6DFB60FFF7AFFDB86011
:105018007B6893F83530DBB2022B08D07B6880229E
:105028005A657B68002283F83420012352E07B68AC
:105038001B681A687B681B6822F016021A607B6876
:105048001B685A697B681B6822F080025A617B687A
:105058001B6C002B03D17B689B6C002B07D07B68F3
:105068001B681A687B681B6822F008021A607B6854
:105078001B681A687B681B6822F001021A6013E03B
:10508800FFF774FD0246BB68D31A052B0CD97B6861
:1050980020225A657B68032283F835207B6800222A
:1050A80083F83420032315E07B681B681B6803F032
:1050B8000103002BE4D17B68DB6D3F229A40FB683B
:1050C8009A607B68012283F835207B68002283F888
:1050D8003420002318461037BD4680BD80B483B005
:1050E80000AF78607B6893F83530DBB2022B04D0D0
:1050F8007B6880225A6501230CE07B68052283F8CF
:1051080035207B681B681A687B681B6822F00102DF
:105118001A60002318460C37BD465DF8047B7047BB
:1051280080B586B000AF78600023BB608E4B1B68EB
:105138008E4AA2FB03239B0A7B617B689B6D3B61C4
:105148003B691B68FB607B68DB6D08229A40FB6843
:105158001340002B1AD07B681B681B6803F00403FC
:10516800002B13D07B681B681A687B681B6822F0C9
:1051780004021A607B68DB6D08229A403B699A60DA
:105188007B685B6D43F001027B685A657B68DB6D69
:1051980001229A40FB681340002B12D07B681B68E1
:1051A8005B6903F08003002B0BD07B68DB6D012269
:1051B8009A403B699A607B685B6D43F002027B68AA
:1051C8005A657B68DB6D04229A40FB681340002B0C
:1051D80012D07B681B681B6803F00203002B0BD0FE
:1051E8007B68DB6D04229A403B699A607B685B6D43
:1051F80043F004027B685A657B68DB6D10229A4095
:10520800FB681340002B43D07B681B681B6803F0C6
:105218000803002B3CD07B68DB6D10229A403B6969
:105228009A607B681B681B6803F48023002B18D0E6
:105238007B681B681B6803F40023002B08D17B687C
:105248001B6C002B24D07B681B6C786898471FE088
:105258007B689B6C002B1BD07B689B6C786898479D
:1052680016E07B681B681B6803F48073002B07D16A
:105278007B681B681A687B681B6822F008021A6042
:105288007B681B6C002B03D07B681B6C7868984785
:105298007B68DB6D20229A40FB681340002B00F0EE
:1052A8008F807B681B681B6803F01003002B00F0DD
:1052B80087807B68DB6D20229A403B699A607B6817
:1052C80093F83530DBB2052B36D17B681B681A683A
:1052D8007B681B6822F016021A607B681B685A6993
:1052E8007B681B6822F080025A617B681B6C002B6C
:1052F80003D17B689B6C002B07D07B681B681A68FE
:105308007B681B6822F008021A607B68DB6D3F220D
:105318009A403B699A607B68012283F835207B6854
:10532800002283F834207B681B6D002B7ED07B68BD
:105338001B6D7868984779E07B681B681B6803F4E5
:105348008023002B1DD07B681B681B6803F4002397
:10535800002B0DD17B685B6C002B31D07B685B6CBC
:10536800786898472CE000BF3C000020B5814E1BB0
:105378007B68DB6B002B23D07B68DB6B78689847F6
:105388001EE07B681B681B6803F48073002B0FD139
:105398007B681B681A687B681B6822F010021A6019
:1053A8007B68012283F835207B68002283F834204B
:1053B8007B68DB6B002B03D07B68DB6B78689847D6
:1053C8007B685B6D002B32D07B685B6D03F001035B
:1053D800002B22D07B68052283F835207B681B6868
:1053E8001A687B681B6822F001021A60BB680133E7
:1053F800BB607A699A4207D37B681B681B6803F015
:105408000103002BF2D100E000BF7B68012283F882
:1054180035207B68002283F834207B68DB6C002B06
:1054280005D07B68DB6C7868984700E000BF1837C8
:10543800BD4680BD80B485B000AFF860B9607A60C1
:105448003B60FB681B681A68FB681B6822F48022B3
:105458001A60FB681B683A685A60FB689B68402BB7
:1054680008D1FB681B687A689A60FB681B68BA6891
:10547800DA6007E0FB681B68BA689A60FB681B681B
:105488007A68DA6000BF1437BD465DF8047B704760
:1054980080B485B000AF78607B681B68DBB2103BD6
:1054A800144AA2FB03231B09FB60134AFB6813443D
:1054B8001B781A467B68DA65FB68032B09D97B6879
:1054C8001B6823F47F7323F003031A1D7B689A6516
:1054D80007E07B681B6823F47F7323F003037A6873
:1054E80093657B689B6D18461437BD465DF8047B51
:1054F800704700BFABAAAAAAC491000880B485B0BF
:1055080000AF78600023FB737B689B6ABB607B6895
:105518009B69002B1FD1BB68032B56D801A252F8F8
:1055280023F000BF3D5500084F5500083D550008C1
:10553800D35500087B68DB6A03F08073002B46D0E4
:105548000123FB7343E07B68DB6AB3F1C07F40D182
:105558000123FB733DE07B689B69B3F5005F21D1B4
:10556800BB68032B37D801A252F823F085550008F1
:105578008B550008855500089D5500080123FB73CD
:1055880030E07B68DB6A03F08073002B25D00123B1
:10559800FB7322E07B68DB6AB3F1C07F1FD1012374
:1055A800FB731CE0BB68022B03D9BB68032B03D039
:1055B80018E00123FB7315E07B68DB6A03F0807356
:1055C800002B0ED00123FB730BE000BF0AE000BFE5
:1055D80008E000BF06E000BF04E000BF02E000BF33
:1055E80000E000BFFB7B18461437BD465DF8047B1E
:1055F800704700BF80B489B000AF7860396000237D
:105608007B6100233B610023BB610023FB616BE1ED
:105618000122FB6902FA03F37B613B681B687A6924
:1056280013403B613A697B699A4240F05A813B6872
:105638005B6803F00303012B05D03B685B6803F04C
:105648000303022B30D17B689B68BB61FB695B005D
:10565800032202FA03F3DB43BA691340BB613B68D8
:10566800DA68FB695B0002FA03F3BA691343BB61AA
:105678007B68BA699A607B685B68BB610122FB69D9
:1056880002FA03F3DB43BA691340BB613B685B680A
:105698001B0903F00102FB6902FA03F3BA69134319
:1056A800BB617B68BA695A603B685B6803F00303B7
:1056B800032B17D07B68DB68BB61FB695B000322A7
:1056C80002FA03F3DB43BA691340BB613B689A688B
:1056D800FB695B0002FA03F3BA691343BB617B6899
:1056E800BA69DA603B685B6803F00303022B23D1D5
:1056F800FB69DA087B68083253F82230BB61FB6922
:1057080003F007039B000F2202FA03F3DB43BA6995
:105718001340BB613B681A69FB6903F007039B00F0
:1057280002FA03F3BA691343BB61FB69DA087B68C1
:105738000832B96943F822107B681B68BB61FB69B2
:105748005B00032202FA03F3DB43BA691340BB612F
:105758003B685B6803F00302FB695B0002FA03F332
:10576800BA691343BB617B68BA691A603B685B68B6
:1057780003F44033002B00F0B4800023FB60604B3F
:105788005B6C5F4A43F4804353645D4B5B6C03F48A
:105798008043FB60FB685B4AFB699B08023352F855
:1057A8002330BB61FB6903F003039B000F2202FA5D
:1057B80003F3DB43BA691340BB617B68524A9342E7
:1057C8002BD07B68514A934225D07B68504A93423C
:1057D8001FD07B684F4A934219D07B684E4A934248
:1057E80013D07B684D4A93420DD07B684C4A934254
:1057F80007D07B684B4A934201D107230EE0082368
:105808000CE006230AE0052308E0042306E003234E
:1058180004E0022302E0012300E00023FA6902F019
:10582800030292009340BA691343BB613549FB698F
:105838009B080233BA6941F823203B4B9B68BB6144
:105848003B69DB43BA691340BB613B685B6803F49F
:105858008013002B03D0BA693B691343BB61324AFA
:10586800BB699360304BDB68BB613B69DB43BA695A
:105878001340BB613B685B6803F40013002B03D043
:10588800BA693B691343BB61274ABB69D360264B9E
:105898005B68BB613B69DB43BA691340BB613B682A
:1058A8005B6803F40033002B03D0BA693B691343E8
:1058B800BB611D4ABB6953601B4B1B68BB613B69DD
:1058C800DB43BA691340BB613B685B6803F4803310
:1058D800002B03D0BA693B691343BB61124ABB6909
:1058E8001360FB690133FB61FB690F2B7FF690AEF8
:1058F80000BF00BF2437BD465DF8047B704700BF7A
:105908000038024000380140000002400004024014
:1059180000080240000C024000100240001402403F
:1059280000180240001C0240003C014080B483B0D3
:1059380000AF78600B467B8013467B707B78002B2A
:1059480003D07A887B689A6103E07B881A047B68B5
:105958009A6100BF0C37BD465DF8047B70470000B4
:1059680080B586B000AF78607B68002B01D1012339
:1059780067E27B681B6803F00103002B75D0884B36
:105988009B6803F00C03042B0CD0854B9B6803F039
:105998000C03082B12D1824B5B6803F48003B3F528
:1059A800800F0BD17E4B1B6803F40033002B5BD0B8
:1059B8007B685B68002B57D1012342E27B685B68F8
:1059C800B3F5803F06D1764B1B68754A43F48033A4
:1059D80013601DE07B685B68B3F5A02F0CD1704B9A
:1059E8001B686F4A43F4802313606D4B1B686C4A35
:1059F80043F4803313600BE0694B1B68684A23F457
:105A080080331360664B1B68654A23F48023136058
:105A18007B685B68002B13D0FFF7A8F8386108E0B3
:105A2800FFF7A4F802463B69D31A642B01D9032374
:105A380007E25B4B1B6803F40033002BF0D014E043
:105A4800FFF794F8386108E0FFF790F802463B69E1
:105A5800D31A642B01D90323F3E1514B1B6803F4D8
:105A68000033002BF0D100E000BF7B681B6803F017
:105A78000203002B63D04A4B9B6803F00C03002BF6
:105A88000BD0474B9B6803F00C03082B1CD1444BED
:105A98005B6803F48003002B16D1414B1B6803F0AD
:105AA8000203002B05D07B68DB68012B01D00123A2
:105AB800C7E13B4B1B6823F0F8027B681B69DB00DE
:105AC800374913430B603AE07B68DB68002B20D032
